{
  "_format": "hh-sol-artifact-1",
  "contractName": "DclDoNFT",
  "sourceName": "contracts/dcl/DclDoNFT.sol",
  "abi": [
    {
      "inputs": [
        {
          "internalType": "address",
          "name": "sender",
          "type": "address"
        },
        {
          "internalType": "uint256",
          "name": "tokenId",
          "type": "uint256"
        },
        {
          "internalType": "address",
          "name": "owner",
          "type": "address"
        }
      ],
      "name": "ERC721IncorrectOwner",
      "type": "error"
    },
    {
      "inputs": [
        {
          "internalType": "address",
          "name": "operator",
          "type": "address"
        },
        {
          "internalType": "uint256",
          "name": "tokenId",
          "type": "uint256"
        }
      ],
      "name": "ERC721InsufficientApproval",
      "type": "error"
    },
    {
      "inputs": [
        {
          "internalType": "address",
          "name": "approver",
          "type": "address"
        }
      ],
      "name": "ERC721InvalidApprover",
      "type": "error"
    },
    {
      "inputs": [
        {
          "internalType": "address",
          "name": "operator",
          "type": "address"
        }
      ],
      "name": "ERC721InvalidOperator",
      "type": "error"
    },
    {
      "inputs": [
        {
          "internalType": "address",
          "name": "owner",
          "type": "address"
        }
      ],
      "name": "ERC721InvalidOwner",
      "type": "error"
    },
    {
      "inputs": [
        {
          "internalType": "address",
          "name": "receiver",
          "type": "address"
        }
      ],
      "name": "ERC721InvalidReceiver",
      "type": "error"
    },
    {
      "inputs": [
        {
          "internalType": "address",
          "name": "sender",
          "type": "address"
        }
      ],
      "name": "ERC721InvalidSender",
      "type": "error"
    },
    {
      "inputs": [
        {
          "internalType": "uint256",
          "name": "tokenId",
          "type": "uint256"
        }
      ],
      "name": "ERC721NonexistentToken",
      "type": "error"
    },
    {
      "inputs": [],
      "name": "InvalidInitialization",
      "type": "error"
    },
    {
      "inputs": [],
      "name": "NotInitializing",
      "type": "error"
    },
    {
      "inputs": [],
      "name": "ReentrancyGuardReentrantCall",
      "type": "error"
    },
    {
      "anonymous": false,
      "inputs": [
        {
          "indexed": true,
          "internalType": "address",
          "name": "owner",
          "type": "address"
        },
        {
          "indexed": true,
          "internalType": "address",
          "name": "approved",
          "type": "address"
        },
        {
          "indexed": true,
          "internalType": "uint256",
          "name": "tokenId",
          "type": "uint256"
        }
      ],
      "name": "Approval",
      "type": "event"
    },
    {
      "anonymous": false,
      "inputs": [
        {
          "indexed": true,
          "internalType": "address",
          "name": "owner",
          "type": "address"
        },
        {
          "indexed": true,
          "internalType": "address",
          "name": "operator",
          "type": "address"
        },
        {
          "indexed": false,
          "internalType": "bool",
          "name": "approved",
          "type": "bool"
        }
      ],
      "name": "ApprovalForAll",
      "type": "event"
    },
    {
      "anonymous": false,
      "inputs": [
        {
          "indexed": false,
          "internalType": "address",
          "name": "opreator",
          "type": "address"
        },
        {
          "indexed": false,
          "internalType": "address",
          "name": "to",
          "type": "address"
        },
        {
          "indexed": false,
          "internalType": "uint256",
          "name": "tokenId",
          "type": "uint256"
        },
        {
          "indexed": false,
          "internalType": "uint256",
          "name": "durationId",
          "type": "uint256"
        },
        {
          "indexed": false,
          "internalType": "uint256",
          "name": "oid",
          "type": "uint256"
        },
        {
          "indexed": false,
          "internalType": "uint64",
          "name": "expires",
          "type": "uint64"
        }
      ],
      "name": "CheckIn",
      "type": "event"
    },
    {
      "anonymous": false,
      "inputs": [
        {
          "indexed": false,
          "internalType": "address",
          "name": "operator",
          "type": "address"
        }
      ],
      "name": "ClaimRoyaltyAdmin",
      "type": "event"
    },
    {
      "anonymous": false,
      "inputs": [
        {
          "indexed": false,
          "internalType": "address",
          "name": "operator",
          "type": "address"
        },
        {
          "indexed": false,
          "internalType": "uint256",
          "name": "balance",
          "type": "uint256"
        }
      ],
      "name": "ClaimRoyaltyBalance",
      "type": "event"
    },
    {
      "anonymous": false,
      "inputs": [
        {
          "indexed": false,
          "internalType": "uint256[]",
          "name": "durationIdList",
          "type": "uint256[]"
        }
      ],
      "name": "DurationBurn",
      "type": "event"
    },
    {
      "anonymous": false,
      "inputs": [
        {
          "indexed": false,
          "internalType": "uint256",
          "name": "durationId",
          "type": "uint256"
        },
        {
          "indexed": false,
          "internalType": "uint256",
          "name": "tokenId",
          "type": "uint256"
        },
        {
          "indexed": false,
          "internalType": "uint64",
          "name": "start",
          "type": "uint64"
        },
        {
          "indexed": false,
          "internalType": "uint64",
          "name": "end",
          "type": "uint64"
        }
      ],
      "name": "DurationUpdate",
      "type": "event"
    },
    {
      "anonymous": false,
      "inputs": [
        {
          "indexed": false,
          "internalType": "uint64",
          "name": "version",
          "type": "uint64"
        }
      ],
      "name": "Initialized",
      "type": "event"
    },
    {
      "anonymous": false,
      "inputs": [
        {
          "indexed": false,
          "internalType": "uint256",
          "name": "tokenId",
          "type": "uint256"
        }
      ],
      "name": "MetadataUpdate",
      "type": "event"
    },
    {
      "anonymous": false,
      "inputs": [
        {
          "indexed": false,
          "internalType": "address",
          "name": "oldAdmin",
          "type": "address"
        },
        {
          "indexed": false,
          "internalType": "address",
          "name": "newAdmin",
          "type": "address"
        }
      ],
      "name": "NewAdmin",
      "type": "event"
    },
    {
      "anonymous": false,
      "inputs": [
        {
          "indexed": false,
          "internalType": "address",
          "name": "oldOwner",
          "type": "address"
        },
        {
          "indexed": false,
          "internalType": "address",
          "name": "newOwner",
          "type": "address"
        }
      ],
      "name": "NewOwner",
      "type": "event"
    },
    {
      "anonymous": false,
      "inputs": [
        {
          "indexed": false,
          "internalType": "address",
          "name": "oldPendingOwner",
          "type": "address"
        },
        {
          "indexed": false,
          "internalType": "address",
          "name": "newPendingOwner",
          "type": "address"
        }
      ],
      "name": "NewPendingOwner",
      "type": "event"
    },
    {
      "anonymous": false,
      "inputs": [
        {
          "indexed": false,
          "internalType": "uint256",
          "name": "oid",
          "type": "uint256"
        },
        {
          "indexed": false,
          "internalType": "uint256",
          "name": "tokenId",
          "type": "uint256"
        }
      ],
      "name": "Redeem",
      "type": "event"
    },
    {
      "anonymous": false,
      "inputs": [
        {
          "indexed": false,
          "internalType": "address",
          "name": "operator",
          "type": "address"
        },
        {
          "indexed": false,
          "internalType": "address",
          "name": "beneficiary",
          "type": "address"
        }
      ],
      "name": "SetBeneficiary",
      "type": "event"
    },
    {
      "anonymous": false,
      "inputs": [
        {
          "indexed": false,
          "internalType": "address",
          "name": "operator",
          "type": "address"
        },
        {
          "indexed": false,
          "internalType": "uint256",
          "name": "fee",
          "type": "uint256"
        }
      ],
      "name": "SetRoyaltyFee",
      "type": "event"
    },
    {
      "anonymous": false,
      "inputs": [
        {
          "indexed": true,
          "internalType": "address",
          "name": "from",
          "type": "address"
        },
        {
          "indexed": true,
          "internalType": "address",
          "name": "to",
          "type": "address"
        },
        {
          "indexed": true,
          "internalType": "uint256",
          "name": "tokenId",
          "type": "uint256"
        }
      ],
      "name": "Transfer",
      "type": "event"
    },
    {
      "inputs": [],
      "name": "acceptOwner",
      "outputs": [],
      "stateMutability": "nonpayable",
      "type": "function"
    },
    {
      "inputs": [],
      "name": "admin",
      "outputs": [
        {
          "internalType": "address",
          "name": "",
          "type": "address"
        }
      ],
      "stateMutability": "view",
      "type": "function"
    },
    {
      "inputs": [
        {
          "internalType": "address",
          "name": "to",
          "type": "address"
        },
        {
          "internalType": "uint256",
          "name": "tokenId",
          "type": "uint256"
        }
      ],
      "name": "approve",
      "outputs": [],
      "stateMutability": "nonpayable",
      "type": "function"
    },
    {
      "inputs": [
        {
          "internalType": "address",
          "name": "owner",
          "type": "address"
        }
      ],
      "name": "balanceOf",
      "outputs": [
        {
          "internalType": "uint256",
          "name": "",
          "type": "uint256"
        }
      ],
      "stateMutability": "view",
      "type": "function"
    },
    {
      "inputs": [
        {
          "internalType": "address",
          "name": "to",
          "type": "address"
        },
        {
          "internalType": "uint256",
          "name": "tokenId",
          "type": "uint256"
        },
        {
          "internalType": "uint256",
          "name": "durationId",
          "type": "uint256"
        }
      ],
      "name": "checkIn",
      "outputs": [],
      "stateMutability": "nonpayable",
      "type": "function"
    },
    {
      "inputs": [],
      "name": "claimRoyaltyAdmin",
      "outputs": [],
      "stateMutability": "nonpayable",
      "type": "function"
    },
    {
      "inputs": [
        {
          "internalType": "uint256",
          "name": "tokenId",
          "type": "uint256"
        },
        {
          "internalType": "uint256",
          "name": "durationId",
          "type": "uint256"
        },
        {
          "internalType": "uint256",
          "name": "targetTokenId",
          "type": "uint256"
        },
        {
          "internalType": "uint256",
          "name": "targetDurationId",
          "type": "uint256"
        }
      ],
      "name": "concat",
      "outputs": [],
      "stateMutability": "nonpayable",
      "type": "function"
    },
    {
      "inputs": [
        {
          "internalType": "uint256",
          "name": "tokenId",
          "type": "uint256"
        },
        {
          "internalType": "uint256",
          "name": "durationId",
          "type": "uint256"
        }
      ],
      "name": "contains",
      "outputs": [
        {
          "internalType": "bool",
          "name": "",
          "type": "bool"
        }
      ],
      "stateMutability": "view",
      "type": "function"
    },
    {
      "inputs": [
        {
          "internalType": "uint256",
          "name": "tokenId",
          "type": "uint256"
        },
        {
          "internalType": "uint256[]",
          "name": "durationIds",
          "type": "uint256[]"
        }
      ],
      "name": "couldRedeem",
      "outputs": [
        {
          "internalType": "bool",
          "name": "",
          "type": "bool"
        }
      ],
      "stateMutability": "view",
      "type": "function"
    },
    {
      "inputs": [],
      "name": "curDoid",
      "outputs": [
        {
          "internalType": "uint256",
          "name": "",
          "type": "uint256"
        }
      ],
      "stateMutability": "view",
      "type": "function"
    },
    {
      "inputs": [],
      "name": "curDurationId",
      "outputs": [
        {
          "internalType": "uint256",
          "name": "",
          "type": "uint256"
        }
      ],
      "stateMutability": "view",
      "type": "function"
    },
    {
      "inputs": [
        {
          "internalType": "uint256",
          "name": "tokenId",
          "type": "uint256"
        }
      ],
      "name": "exists",
      "outputs": [
        {
          "internalType": "bool",
          "name": "",
          "type": "bool"
        }
      ],
      "stateMutability": "view",
      "type": "function"
    },
    {
      "inputs": [
        {
          "internalType": "uint256",
          "name": "tokenId",
          "type": "uint256"
        },
        {
          "internalType": "uint256[]",
          "name": "durationIds",
          "type": "uint256[]"
        }
      ],
      "name": "gc",
      "outputs": [],
      "stateMutability": "nonpayable",
      "type": "function"
    },
    {
      "inputs": [
        {
          "internalType": "uint256",
          "name": "tokenId",
          "type": "uint256"
        }
      ],
      "name": "getApproved",
      "outputs": [
        {
          "internalType": "address",
          "name": "",
          "type": "address"
        }
      ],
      "stateMutability": "view",
      "type": "function"
    },
    {
      "inputs": [],
      "name": "getBeneficiary",
      "outputs": [
        {
          "internalType": "address payable",
          "name": "",
          "type": "address"
        }
      ],
      "stateMutability": "view",
      "type": "function"
    },
    {
      "inputs": [
        {
          "internalType": "uint256",
          "name": "tokenId",
          "type": "uint256"
        }
      ],
      "name": "getDoNftInfo",
      "outputs": [
        {
          "internalType": "uint256",
          "name": "oid",
          "type": "uint256"
        },
        {
          "internalType": "uint256[]",
          "name": "durationIds",
          "type": "uint256[]"
        },
        {
          "internalType": "uint64[]",
          "name": "starts",
          "type": "uint64[]"
        },
        {
          "internalType": "uint64[]",
          "name": "ends",
          "type": "uint64[]"
        },
        {
          "internalType": "uint64",
          "name": "nonce",
          "type": "uint64"
        }
      ],
      "stateMutability": "view",
      "type": "function"
    },
    {
      "inputs": [
        {
          "internalType": "uint256",
          "name": "durationId",
          "type": "uint256"
        }
      ],
      "name": "getDuration",
      "outputs": [
        {
          "internalType": "uint64",
          "name": "",
          "type": "uint64"
        },
        {
          "internalType": "uint64",
          "name": "",
          "type": "uint64"
        }
      ],
      "stateMutability": "view",
      "type": "function"
    },
    {
      "inputs": [
        {
          "internalType": "uint256",
          "name": "tokenId",
          "type": "uint256"
        },
        {
          "internalType": "uint256",
          "name": "index",
          "type": "uint256"
        }
      ],
      "name": "getDurationByIndex",
      "outputs": [
        {
          "internalType": "uint256",
          "name": "durationId",
          "type": "uint256"
        },
        {
          "internalType": "uint64",
          "name": "start",
          "type": "uint64"
        },
        {
          "internalType": "uint64",
          "name": "end",
          "type": "uint64"
        }
      ],
      "stateMutability": "view",
      "type": "function"
    },
    {
      "inputs": [
        {
          "internalType": "uint256",
          "name": "tokenId",
          "type": "uint256"
        }
      ],
      "name": "getDurationIdList",
      "outputs": [
        {
          "internalType": "uint256[]",
          "name": "",
          "type": "uint256[]"
        }
      ],
      "stateMutability": "view",
      "type": "function"
    },
    {
      "inputs": [
        {
          "internalType": "uint256",
          "name": "tokenId",
          "type": "uint256"
        }
      ],
      "name": "getDurationListLength",
      "outputs": [
        {
          "internalType": "uint256",
          "name": "",
          "type": "uint256"
        }
      ],
      "stateMutability": "view",
      "type": "function"
    },
    {
      "inputs": [
        {
          "internalType": "uint256",
          "name": "tokenId",
          "type": "uint256"
        }
      ],
      "name": "getFingerprint",
      "outputs": [
        {
          "internalType": "bytes32",
          "name": "print",
          "type": "bytes32"
        }
      ],
      "stateMutability": "view",
      "type": "function"
    },
    {
      "inputs": [],
      "name": "getMaxDuration",
      "outputs": [
        {
          "internalType": "uint64",
          "name": "",
          "type": "uint64"
        }
      ],
      "stateMutability": "view",
      "type": "function"
    },
    {
      "inputs": [
        {
          "internalType": "uint256",
          "name": "tokenId",
          "type": "uint256"
        }
      ],
      "name": "getNonce",
      "outputs": [
        {
          "internalType": "uint64",
          "name": "",
          "type": "uint64"
        }
      ],
      "stateMutability": "view",
      "type": "function"
    },
    {
      "inputs": [],
      "name": "getOriginalNftAddress",
      "outputs": [
        {
          "internalType": "address",
          "name": "",
          "type": "address"
        }
      ],
      "stateMutability": "view",
      "type": "function"
    },
    {
      "inputs": [
        {
          "internalType": "uint256",
          "name": "tokenId",
          "type": "uint256"
        }
      ],
      "name": "getOriginalNftId",
      "outputs": [
        {
          "internalType": "uint256",
          "name": "",
          "type": "uint256"
        }
      ],
      "stateMutability": "view",
      "type": "function"
    },
    {
      "inputs": [],
      "name": "getRoyaltyFee",
      "outputs": [
        {
          "internalType": "uint256",
          "name": "",
          "type": "uint256"
        }
      ],
      "stateMutability": "view",
      "type": "function"
    },
    {
      "inputs": [
        {
          "internalType": "uint256",
          "name": "originalNftId",
          "type": "uint256"
        }
      ],
      "name": "getUser",
      "outputs": [
        {
          "internalType": "address",
          "name": "",
          "type": "address"
        }
      ],
      "stateMutability": "view",
      "type": "function"
    },
    {
      "inputs": [
        {
          "internalType": "uint256",
          "name": "originalNftId",
          "type": "uint256"
        }
      ],
      "name": "getVNftId",
      "outputs": [
        {
          "internalType": "uint256",
          "name": "",
          "type": "uint256"
        }
      ],
      "stateMutability": "view",
      "type": "function"
    },
    {
      "inputs": [
        {
          "internalType": "string",
          "name": "name_",
          "type": "string"
        },
        {
          "internalType": "string",
          "name": "symbol_",
          "type": "string"
        },
        {
          "internalType": "address",
          "name": "nftAddress_",
          "type": "address"
        },
        {
          "internalType": "address",
          "name": "market_",
          "type": "address"
        },
        {
          "internalType": "address",
          "name": "owner_",
          "type": "address"
        },
        {
          "internalType": "address",
          "name": "admin_",
          "type": "address"
        },
        {
          "internalType": "address",
          "name": "royaltyAdmin_",
          "type": "address"
        }
      ],
      "name": "initialize",
      "outputs": [],
      "stateMutability": "nonpayable",
      "type": "function"
    },
    {
      "inputs": [
        {
          "internalType": "address",
          "name": "owner",
          "type": "address"
        },
        {
          "internalType": "address",
          "name": "operator",
          "type": "address"
        }
      ],
      "name": "isApprovedForAll",
      "outputs": [
        {
          "internalType": "bool",
          "name": "",
          "type": "bool"
        }
      ],
      "stateMutability": "view",
      "type": "function"
    },
    {
      "inputs": [
        {
          "internalType": "uint256",
          "name": "oid",
          "type": "uint256"
        }
      ],
      "name": "isCheckInDataExpired",
      "outputs": [
        {
          "internalType": "bool",
          "name": "",
          "type": "bool"
        }
      ],
      "stateMutability": "view",
      "type": "function"
    },
    {
      "inputs": [
        {
          "internalType": "uint256",
          "name": "tokenId",
          "type": "uint256"
        }
      ],
      "name": "isVNft",
      "outputs": [
        {
          "internalType": "bool",
          "name": "",
          "type": "bool"
        }
      ],
      "stateMutability": "view",
      "type": "function"
    },
    {
      "inputs": [
        {
          "internalType": "uint256",
          "name": "tokenId",
          "type": "uint256"
        }
      ],
      "name": "isValidNow",
      "outputs": [
        {
          "internalType": "bool",
          "name": "isValid",
          "type": "bool"
        }
      ],
      "stateMutability": "view",
      "type": "function"
    },
    {
      "inputs": [],
      "name": "market",
      "outputs": [
        {
          "internalType": "address",
          "name": "",
          "type": "address"
        }
      ],
      "stateMutability": "view",
      "type": "function"
    },
    {
      "inputs": [],
      "name": "maxDuration",
      "outputs": [
        {
          "internalType": "uint64",
          "name": "",
          "type": "uint64"
        }
      ],
      "stateMutability": "view",
      "type": "function"
    },
    {
      "inputs": [
        {
          "internalType": "uint256",
          "name": "tokenId",
          "type": "uint256"
        },
        {
          "internalType": "uint256",
          "name": "durationId",
          "type": "uint256"
        },
        {
          "internalType": "uint64",
          "name": "start",
          "type": "uint64"
        },
        {
          "internalType": "uint64",
          "name": "end",
          "type": "uint64"
        },
        {
          "internalType": "address",
          "name": "to",
          "type": "address"
        },
        {
          "internalType": "address",
          "name": "user",
          "type": "address"
        }
      ],
      "name": "mint",
      "outputs": [
        {
          "internalType": "uint256",
          "name": "tid",
          "type": "uint256"
        }
      ],
      "stateMutability": "nonpayable",
      "type": "function"
    },
    {
      "inputs": [
        {
          "internalType": "uint256",
          "name": "oid",
          "type": "uint256"
        }
      ],
      "name": "mintVNft",
      "outputs": [
        {
          "internalType": "uint256",
          "name": "tid",
          "type": "uint256"
        }
      ],
      "stateMutability": "nonpayable",
      "type": "function"
    },
    {
      "inputs": [
        {
          "internalType": "bytes[]",
          "name": "data",
          "type": "bytes[]"
        }
      ],
      "name": "multicall",
      "outputs": [
        {
          "internalType": "bytes[]",
          "name": "results",
          "type": "bytes[]"
        }
      ],
      "stateMutability": "nonpayable",
      "type": "function"
    },
    {
      "inputs": [],
      "name": "name",
      "outputs": [
        {
          "internalType": "string",
          "name": "",
          "type": "string"
        }
      ],
      "stateMutability": "view",
      "type": "function"
    },
    {
      "inputs": [
        {
          "internalType": "address",
          "name": "",
          "type": "address"
        },
        {
          "internalType": "address",
          "name": "",
          "type": "address"
        },
        {
          "internalType": "uint256",
          "name": "",
          "type": "uint256"
        },
        {
          "internalType": "bytes",
          "name": "",
          "type": "bytes"
        }
      ],
      "name": "onERC721Received",
      "outputs": [
        {
          "internalType": "bytes4",
          "name": "",
          "type": "bytes4"
        }
      ],
      "stateMutability": "pure",
      "type": "function"
    },
    {
      "inputs": [],
      "name": "owner",
      "outputs": [
        {
          "internalType": "address",
          "name": "",
          "type": "address"
        }
      ],
      "stateMutability": "view",
      "type": "function"
    },
    {
      "inputs": [
        {
          "internalType": "uint256",
          "name": "tokenId",
          "type": "uint256"
        }
      ],
      "name": "ownerOf",
      "outputs": [
        {
          "internalType": "address",
          "name": "",
          "type": "address"
        }
      ],
      "stateMutability": "view",
      "type": "function"
    },
    {
      "inputs": [],
      "name": "pendingOwner",
      "outputs": [
        {
          "internalType": "address",
          "name": "",
          "type": "address"
        }
      ],
      "stateMutability": "view",
      "type": "function"
    },
    {
      "inputs": [
        {
          "internalType": "uint256",
          "name": "tokenId",
          "type": "uint256"
        },
        {
          "internalType": "uint256[]",
          "name": "durationIds",
          "type": "uint256[]"
        }
      ],
      "name": "redeem",
      "outputs": [],
      "stateMutability": "nonpayable",
      "type": "function"
    },
    {
      "inputs": [],
      "name": "renounceOwnership",
      "outputs": [],
      "stateMutability": "nonpayable",
      "type": "function"
    },
    {
      "inputs": [
        {
          "internalType": "uint256[]",
          "name": "ids",
          "type": "uint256[]"
        },
        {
          "internalType": "address",
          "name": "to",
          "type": "address"
        }
      ],
      "name": "resetExpiredTo",
      "outputs": [],
      "stateMutability": "nonpayable",
      "type": "function"
    },
    {
      "inputs": [],
      "name": "royaltyAdmin",
      "outputs": [
        {
          "internalType": "address",
          "name": "",
          "type": "address"
        }
      ],
      "stateMutability": "view",
      "type": "function"
    },
    {
      "inputs": [
        {
          "internalType": "address",
          "name": "from",
          "type": "address"
        },
        {
          "internalType": "address",
          "name": "to",
          "type": "address"
        },
        {
          "internalType": "uint256",
          "name": "tokenId",
          "type": "uint256"
        }
      ],
      "name": "safeTransferFrom",
      "outputs": [],
      "stateMutability": "nonpayable",
      "type": "function"
    },
    {
      "inputs": [
        {
          "internalType": "address",
          "name": "from",
          "type": "address"
        },
        {
          "internalType": "address",
          "name": "to",
          "type": "address"
        },
        {
          "internalType": "uint256",
          "name": "tokenId",
          "type": "uint256"
        },
        {
          "internalType": "bytes",
          "name": "data",
          "type": "bytes"
        }
      ],
      "name": "safeTransferFrom",
      "outputs": [],
      "stateMutability": "nonpayable",
      "type": "function"
    },
    {
      "inputs": [
        {
          "internalType": "address",
          "name": "newAdmin",
          "type": "address"
        }
      ],
      "name": "setAdmin",
      "outputs": [],
      "stateMutability": "nonpayable",
      "type": "function"
    },
    {
      "inputs": [
        {
          "internalType": "address",
          "name": "operator",
          "type": "address"
        },
        {
          "internalType": "bool",
          "name": "approved",
          "type": "bool"
        }
      ],
      "name": "setApprovalForAll",
      "outputs": [],
      "stateMutability": "nonpayable",
      "type": "function"
    },
    {
      "inputs": [
        {
          "internalType": "address payable",
          "name": "beneficiary_",
          "type": "address"
        }
      ],
      "name": "setBeneficiary",
      "outputs": [],
      "stateMutability": "nonpayable",
      "type": "function"
    },
    {
      "inputs": [
        {
          "internalType": "bool",
          "name": "v",
          "type": "bool"
        }
      ],
      "name": "setIsOnlyNow",
      "outputs": [],
      "stateMutability": "nonpayable",
      "type": "function"
    },
    {
      "inputs": [
        {
          "internalType": "address",
          "name": "_market",
          "type": "address"
        }
      ],
      "name": "setMarket",
      "outputs": [],
      "stateMutability": "nonpayable",
      "type": "function"
    },
    {
      "inputs": [
        {
          "internalType": "uint64",
          "name": "v",
          "type": "uint64"
        }
      ],
      "name": "setMaxDuration",
      "outputs": [],
      "stateMutability": "nonpayable",
      "type": "function"
    },
    {
      "inputs": [
        {
          "internalType": "uint256",
          "name": "fee_",
          "type": "uint256"
        }
      ],
      "name": "setRoyaltyFee",
      "outputs": [],
      "stateMutability": "nonpayable",
      "type": "function"
    },
    {
      "inputs": [
        {
          "internalType": "address",
          "name": "tempAdmin_",
          "type": "address"
        }
      ],
      "name": "setTempRoyaltyAdmin",
      "outputs": [],
      "stateMutability": "nonpayable",
      "type": "function"
    },
    {
      "inputs": [
        {
          "internalType": "bytes4",
          "name": "interfaceId",
          "type": "bytes4"
        }
      ],
      "name": "supportsInterface",
      "outputs": [
        {
          "internalType": "bool",
          "name": "",
          "type": "bool"
        }
      ],
      "stateMutability": "view",
      "type": "function"
    },
    {
      "inputs": [],
      "name": "symbol",
      "outputs": [
        {
          "internalType": "string",
          "name": "",
          "type": "string"
        }
      ],
      "stateMutability": "view",
      "type": "function"
    },
    {
      "inputs": [],
      "name": "tempRoyaltyAdmin",
      "outputs": [
        {
          "internalType": "address",
          "name": "",
          "type": "address"
        }
      ],
      "stateMutability": "view",
      "type": "function"
    },
    {
      "inputs": [
        {
          "internalType": "uint256",
          "name": "tokenId",
          "type": "uint256"
        }
      ],
      "name": "tokenURI",
      "outputs": [
        {
          "internalType": "string",
          "name": "",
          "type": "string"
        }
      ],
      "stateMutability": "view",
      "type": "function"
    },
    {
      "inputs": [
        {
          "internalType": "address",
          "name": "from",
          "type": "address"
        },
        {
          "internalType": "address",
          "name": "to",
          "type": "address"
        },
        {
          "internalType": "uint256",
          "name": "tokenId",
          "type": "uint256"
        }
      ],
      "name": "transferFrom",
      "outputs": [],
      "stateMutability": "nonpayable",
      "type": "function"
    },
    {
      "inputs": [
        {
          "internalType": "address",
          "name": "_pendingOwner",
          "type": "address"
        }
      ],
      "name": "transferOwnership",
      "outputs": [],
      "stateMutability": "nonpayable",
      "type": "function"
    }
  ],
  "bytecode": "0x6080604052348015600f57600080fd5b50614eef8061001f6000396000f3fe608060405234801561001057600080fd5b50600436106103c45760003560e01c8063820bdcdc116101ff578063c72437261161011a578063e42e66a9116100ad578063f2fde38b1161007c578063f2fde38b1461093d578063f851a44014610950578063fd83de6214610963578063fe909ee41461097657600080fd5b8063e42e66a9146108d7578063e985e9c51461090f578063ebbc496514610922578063f01478321461092a57600080fd5b8063cb697d1e116100e9578063cb697d1e1461087e578063d816f09114610891578063dbe102c0146108a4578063e30c3978146108c457600080fd5b8063c724372614610832578063c793c12514610845578063c87b56dd14610858578063c91f0c531461086b57600080fd5b8063a6cc265011610192578063b0467deb11610161578063b0467deb146107e8578063b49a2db9146107fb578063b88d4fde1461080c578063c4a0db961461081f57600080fd5b8063a6cc265014610799578063a8328412146107ac578063abb2176a146107bf578063ac9650d8146107c857600080fd5b806395d89b41116101ce57806395d89b411461076257806398e5d38f1461076a578063a050ac8f1461077d578063a22cb4651461078657600080fd5b8063820bdcdc146106df578063894e851f146106e75780638bb126a7146106fa5780638da5cb5b1461074f57600080fd5b80633e4086e5116102ef5780636352211e11610282578063704b6c0211610251578063704b6c021461069e57806370a08231146106b1578063715018a6146106c457806380f55605146106cc57600080fd5b80636352211e146106525780636db5c8fd146106655780636dcea85f146106785780636ece56b31461068b57600080fd5b80634f558e79116102be5780634f558e79146105d457806352332ed8146105e7578063565a2e2c1461060b57806358174e061461061c57600080fd5b80633e4086e51461057b5780633ed189cf1461058e57806342842e0e146105ae578063438e15fc146105c157600080fd5b8063159a64751161036757806323b872dd1161033657806323b872dd1461050057806325cb25b014610513578063393b17a4146105245780633d46b8191461053757600080fd5b8063159a6475146104b25780631aa14498146104c55780631c31f710146104e55780631f1aea3a146104f857600080fd5b8063081812fc116103a3578063081812fc1461041b578063095ea7b31461044657806310c1185414610459578063150b7a021461047a57600080fd5b806295d645146103c957806301ffc9a7146103de57806306fdde0314610406575b600080fd5b6103dc6103d736600461404a565b610989565b005b6103f16103ec36600461407d565b6109e4565b60405190151581526020015b60405180910390f35b61040e610a2a565b6040516103fd91906140ea565b61042e6104293660046140fd565b610ace565b6040516001600160a01b0390911681526020016103fd565b6103dc610454366004614136565b610ae3565b61046c610467366004614179565b610af2565b6040519081526020016103fd565b6104996104883660046141e5565b630a85bd0160e11b95945050505050565b6040516001600160e01b031990911681526020016103fd565b61046c6104c03660046140fd565b610f48565b61046c6104d33660046140fd565b60009081526008602052604090205490565b6103dc6104f3366004614284565b610f9f565b6103dc611052565b6103dc61050e3660046142a1565b6110fd565b6003546001600160a01b031661042e565b6103f16105323660046140fd565b611188565b6105636105453660046140fd565b6000908152600860205260409020600101546001600160401b031690565b6040516001600160401b0390911681526020016103fd565b6103dc6105893660046140fd565b61122d565b61046c61059c3660046140fd565b6000908152600a602052604090205490565b6103dc6105bc3660046142a1565b6112d8565b6103f16105cf3660046142e2565b6112f8565b6103f16105e23660046140fd565b61131a565b6105fa6105f53660046140fd565b611337565b6040516103fd95949392919061437b565b600d546001600160a01b031661042e565b6103f161062a3660046140fd565b60009081526010602052604090206001015442600160a01b9091046001600160401b03161090565b61042e6106603660046140fd565b6114c6565b600754610563906001600160401b031681565b6103dc610686366004614284565b6114d1565b600f5461042e906001600160a01b031681565b6103dc6106ac366004614284565b61157a565b61046c6106bf366004614284565b61160d565b6103dc611669565b60045461042e906001600160a01b031681565b600c5461046c565b600e5461042e906001600160a01b031681565b61072f6107083660046140fd565b6000908152600960205260409020546001600160401b0380821692600160401b9092041690565b604080516001600160401b039384168152929091166020830152016103fd565b60005461042e906001600160a01b031681565b61040e61178d565b6103dc6107783660046143d6565b6117cc565b61046c60065481565b6103dc61079436600461440b565b611812565b61046c6107a73660046140fd565b61181d565b6103f16107ba3660046140fd565b611a02565b61046c60055481565b6107db6107d636600461448f565b611a35565b6040516103fd91906144d0565b61042e6107f63660046140fd565b611b82565b6007546001600160401b0316610563565b6103dc61081a3660046145e0565b611bf0565b6103dc61082d36600461465f565b611c08565b6103dc610840366004614284565b611f34565b6103dc6108533660046146aa565b611fd2565b61040e6108663660046140fd565b612084565b6103dc61087936600461478c565b6123ef565b6103f161088c36600461465f565b612523565b6103dc61089f366004614852565b612709565b6108b76108b23660046140fd565b612979565b6040516103fd9190614884565b60015461042e906001600160a01b031681565b6108ea6108e53660046142e2565b612996565b604080519384526001600160401b0392831660208501529116908201526060016103fd565b6103f161091d366004614897565b612a30565b6103dc612a7d565b6103dc6109383660046148c5565b612b93565b6103dc61094b366004614284565b612bf5565b60025461042e906001600160a01b031681565b61046c6109713660046140fd565b612c5e565b6103dc61098436600461465f565b612c78565b6002546001600160a01b03163314806109ac57506000546001600160a01b031633145b6109d15760405162461bcd60e51b81526004016109c8906148e0565b60405180910390fd5b600b805460ff1916911515919091179055565b60006001600160e01b0319821663c91f0c5360e01b1480610a1557506001600160e01b0319821663e93a693f60e01b145b80610a245750610a2482612d5f565b92915050565b600080516020614e7a8339815191528054606091908190610a4a90614903565b80601f0160208091040260200160405190810160405280929190818152602001828054610a7690614903565b8015610ac35780601f10610a9857610100808354040283529160200191610ac3565b820191906000526020600020905b815481529060010190602001808311610aa657829003601f168201915b505050505091505090565b6000610ad982612d84565b50610a2482612dbc565b610aee828233612df6565b5050565b600b54600090859060ff1615610b4b5742816001600160401b03161115610b4b5760405162461bcd60e51b815260206004820152600d60248201526c6d7573742066726f6d206e6f7760981b60448201526064016109c8565b610b53612e03565b42866001600160401b03161015610b68574295505b610b723389612e3b565b610bb75760405162461bcd60e51b81526020600482015260166024820152751b9bdd081bdddb995c881b9bdc88185c1c1c9bdd995960521b60448201526064016109c8565b856001600160401b0316856001600160401b0316118015610bf65750600754610be9906001600160401b031642614953565b856001600160401b031611155b610c395760405162461bcd60e51b81526020600482015260146024820152731a5b9d985b1a59081cdd185c9d081bdc88195b9960621b60448201526064016109c8565b6000888152600860205260409020610c5189896112f8565b610c9d5760405162461bcd60e51b815260206004820152601760248201527f6e6f7420636f6e7461696e73206475726174696f6e496400000000000000000060448201526064016109c8565b600088815260096020526040902080546001600160401b0390811690891610801590610cde575080546001600160401b03600160401b909104811690881611155b610d1d5760405162461bcd60e51b815260206004820152601060248201526f34b73b30b634b210323ab930ba34b7b760811b60448201526064016109c8565b80546000906001600160401b038a81169116148015610d4f575081546001600160401b03898116600160401b90920416145b15610d9657610d648784600001548b8b612eba565b94506006549050610d758b8b612ee0565b610d8183600201612f95565b600003610d9157610d918b612f9f565b610ed5565b81546001600160401b038a81169116148015610dc6575081546001600160401b03898116600160401b9092041614155b15610df757610dd6886001614966565b825467ffffffffffffffff19166001600160401b0391909116178255610ebd565b81546001600160401b038a8116911614801590610e27575081546001600160401b03898116600160401b90920416145b15610e6357610e3760018a614985565b82546001600160401b0391909116600160401b0267ffffffffffffffff60401b19909116178255610ebd565b42896001600160401b03161115610e95578154610e95908c906001600160401b0316610e9060018d614985565b612fe7565b610ea0886001614966565b825467ffffffffffffffff19166001600160401b03919091161782555b610ecd8784600001548b8b612eba565b945060065490505b42896001600160401b031603610ef057610ef08686836117cc565b6040518b81527ff8e1a15aba9398e019f0b49df1a4fde98ee17ae345cb5f6b5e2c27f5033e8ce79060200160405180910390a1505050610f3d6001600080516020614e9a83398151915255565b509695505050505050565b600080600080600080610f5a87611337565b945094509450945094508484848484604051602001610f7d9594939291906149d3565b6040516020818303038152906040528051906020012095505050505050919050565b600e546001600160a01b03163314610fc95760405162461bcd60e51b81526004016109c8906148e0565b6001600160a01b03811615801590610fef5750600d546001600160a01b03828116911614155b610ff857600080fd5b600d80546001600160a01b0319166001600160a01b0383169081179091556040517f8a0149b2f3ddf2c9ee85738165131d82babbb938f749321d59f75750afa7f4e69161104791339190614a3b565b60405180910390a150565b600f546001600160a01b031633146110a35760405162461bcd60e51b81526020600482015260146024820152733737ba103a32b6b82937bcb0b63a3ca0b236b4b760611b60448201526064016109c8565b600f8054600e80546001600160a01b0383166001600160a01b0319918216179091551690556040513381527f0314d3865404a6a594e66b7f1922326048dad3985f6fad5069fd4bc22e3fbdcd9060200160405180910390a1565b6001600160a01b03821661112757604051633250574960e11b8152600060048201526024016109c8565b60006111348383336130d9565b9050836001600160a01b0316816001600160a01b031614611182576040516364283d7b60e01b81526001600160a01b03808616600483015260248201849052821660448201526064016109c8565b50505050565b6000818152600860205260408120816111a360028301612f95565b90506000805b82811015611221576111be6002850182613143565b600081815260096020526040902054909250426001600160401b03909116118015906112085750600082815260096020526040902054600160401b90046001600160401b03164211155b156112195750600195945050505050565b6001016111a9565b50600095945050505050565b600e546001600160a01b031633146112575760405162461bcd60e51b81526004016109c8906148e0565b61271081111561129d5760405162461bcd60e51b815260206004820152601160248201527019995948195e18d959591cc80c4c1c18dd607a1b60448201526064016109c8565b600c81905560408051338152602081018390527f2c94a29baa8bee7919326700203e3124421ec6498cdc7be4868a1a76fb56b03e9101611047565b6112f383838360405180602001604052806000815250611bf0565b505050565b6000828152600860205260408120611313906002018361314f565b9392505050565b60008061132683613167565b6001600160a01b0316141592915050565b6000818152600860205260408120805460018201549092606092839283926001600160401b03909116919061136e60028301612f95565b90506000816001600160401b0381111561138a5761138a614535565b6040519080825280602002602001820160405280156113b3578160200160208202803683370190505b509550816001600160401b038111156113ce576113ce614535565b6040519080825280602002602001820160405280156113f7578160200160208202803683370190505b509450611406836002016131a1565b965060005b828110156114b9576114206002850182613143565b60008181526009602052604090205488519193506001600160401b03169088908390811061145057611450614a55565b6001600160401b039283166020918202929092018101919091526000848152600990915260409020548751600160401b9091049091169087908390811061149957611499614a55565b6001600160401b039092166020928302919091019091015260010161140b565b5050505091939590929450565b6000610a2482612d84565b6000546001600160a01b031633146114fb5760405162461bcd60e51b81526004016109c890614a6b565b46600481148061150b5750806061145b6115575760405162461bcd60e51b815260206004820152601860248201527f6f6e6c7920666f722072696e6b656279206f722062736374000000000000000060448201526064016109c8565b50600480546001600160a01b0319166001600160a01b0392909216919091179055565b6000546001600160a01b031633146115a45760405162461bcd60e51b81526004016109c890614a6b565b6002546040517ff9ffabca9c8276e99321725bcb43fb076a6c66a54b7f21c4e8146d8519b417dc916115e3916001600160a01b03909116908490614a3b565b60405180910390a1600280546001600160a01b0319166001600160a01b0392909216919091179055565b6000600080516020614e7a8339815191526001600160a01b038316611648576040516322718ad960e21b8152600060048201526024016109c8565b6001600160a01b039092166000908152600390920160205250604090205490565b6000546001600160a01b031633146116935760405162461bcd60e51b81526004016109c890614a6b565b600080546040517f70aea8d848e8a90fb7661b227dc522eb6395c3dac71b63cb59edd5c9899b2364926116cf926001600160a01b031691614a3b565b60405180910390a16002546040517ff9ffabca9c8276e99321725bcb43fb076a6c66a54b7f21c4e8146d8519b417dc91611717916001600160a01b0390911690600090614a3b565b60405180910390a16001546040517fb3d55174552271a4f1aaf36b72f50381e892171636b3fb5447fe00e995e7a37b9161175f916001600160a01b0390911690600090614a3b565b60405180910390a1600080546001600160a01b03199081169091556001805482169055600280549091169055565b7f80bb2b638cc20bc4d0a60d66940f3ab4a00c1d7b313497ca82fb0b4ab00793018054606091600080516020614e7a83398151915291610a4a90614903565b6117d78383836131ae565b6000818152600960209081526040808320858452600890925290912054815461118291908690600160401b90046001600160401b0316613356565b610aee33838361342e565b6000611827612e03565b6000828152600a6020526040902054156118745760405162461bcd60e51b815260206004820152600e60248201526d185b1c9958591e481ddc985c195960921b60448201526064016109c8565b60035461188c9033906001600160a01b0316846134df565b6118d15760405162461bcd60e51b815260206004820152601660248201527537b7363c9030b8383937bb32b21037b91037bbb732b960511b60448201526064016109c8565b6003546040516331a9108f60e11b8152600481018490526000916001600160a01b031690636352211e90602401602060405180830381865afa15801561191b573d6000803e3d6000fd5b505050506040513d601f19601f8201168201806040525081019061193f9190614a8e565b600354604051632142170760e11b81526001600160a01b038084166004830152306024830152604482018790529293509116906342842e0e90606401600060405180830381600087803b15801561199557600080fd5b505af11580156119a9573d6000803e3d6000fd5b505050506119c08184426001600160401b03612eba565b6000848152600a6020526040902081905591506119e583826001600160401b03613356565b506119fd6001600080516020614e9a83398151915255565b919050565b600081600003611a1457506000919050565b506000818152600860209081526040808320548352600a9091529020541490565b6060816001600160401b03811115611a4f57611a4f614535565b604051908082528060200260200182016040528015611a8257816020015b6060815260200190600190039081611a6d5790505b50905060005b82811015611b7b5760008030868685818110611aa657611aa6614a55565b9050602002810190611ab89190614aab565b604051611ac6929190614af1565b6000604051808303816000865af19150503d8060008114611b03576040519150601f19603f3d011682016040523d82523d6000602084013e611b08565b606091505b509150915081611b535760405162461bcd60e51b8152602060048201526016602482015275135d5b1d1a58d85b1b0e8818d85b1b0819985a5b195960521b60448201526064016109c8565b80848481518110611b6657611b66614a55565b60209081029190910101525050600101611a88565b5092915050565b6003546040516309d40b8560e41b8152600481018390526000916001600160a01b031690639d40b85090602401602060405180830381865afa158015611bcc573d6000803e3d6000fd5b505050506040513d601f19601f82011682018060405250810190610a249190614a8e565b611bfb8484846110fd565b611182338585858561367c565b611c123384612e3b565b611c2e5760405162461bcd60e51b81526004016109c890614b01565b611c39838383612523565b611c755760405162461bcd60e51b815260206004820152600d60248201526c63616e6e6f742072656465656d60981b60448201526064016109c8565b6000838152600860205260409081902060035491516301ffc9a760e01b815263b72080fb60e01b600482015290916001600160a01b0316906301ffc9a790602401602060405180830381865afa158015611cd3573d6000803e3d6000fd5b505050506040513d601f19601f82011682018060405250810190611cf79190614b52565b15611e6557600354815460405163db006a7560e01b81526001600160a01b039092169163db006a7591611d309160040190815260200190565b600060405180830381600087803b158015611d4a57600080fd5b505af1158015611d5e573d6000803e3d6000fd5b505050506000600360009054906101000a90046001600160a01b03166001600160a01b031663cab416b46040518163ffffffff1660e01b8152600401602060405180830381865afa158015611db7573d6000803e3d6000fd5b505050506040513d601f19601f82011682018060405250810190611ddb9190614a8e565b9050806001600160a01b03166342842e0e30611df6886114c6565b855460405160e085901b6001600160e01b03191681526001600160a01b0393841660048201529290911660248301526044820152606401600060405180830381600087803b158015611e4757600080fd5b505af1158015611e5b573d6000803e3d6000fd5b5050505050611eea565b6003546001600160a01b03166342842e0e30611e80876114c6565b845460405160e085901b6001600160e01b03191681526001600160a01b0393841660048201529290911660248301526044820152606401600060405180830381600087803b158015611ed157600080fd5b505af1158015611ee5573d6000803e3d6000fd5b505050505b611ef3846137a5565b805460408051918252602082018690527fe3829d5463fae0f748d927f86f762044188c9ce53d91a394eb93e98354cc3092910160405180910390a150505050565b600e546001600160a01b03163314611f815760405162461bcd60e51b815260206004820152601060248201526f3737ba103937bcb0b63a3ca0b236b4b760811b60448201526064016109c8565b6001600160a01b03811615801590611fa75750600e546001600160a01b03828116911614155b611fb057600080fd5b600f80546001600160a01b0319166001600160a01b0392909216919091179055565b6002546001600160a01b0316331480611ff557506000546001600160a01b031633145b6120115760405162461bcd60e51b81526004016109c8906148e0565b60005b82518110156112f357600083828151811061203157612031614a55565b6020026020010151905061206a81600090815260106020526040902060010154426001600160401b03600160a01b909204919091161090565b1561207b5761207b81846000613356565b50600101612014565b606061208f8261131a565b6120f35760405162461bcd60e51b815260206004820152602f60248201527f4552433732314d657461646174613a2055524920717565727920666f72206e6f60448201526e3732bc34b9ba32b73a103a37b5b2b760891b60648201526084016109c8565b600080612101846000612996565b92509250506060806000600360009054906101000a90046001600160a01b03166001600160a01b03166395d89b416040518163ffffffff1660e01b8152600401600060405180830381865afa15801561215e573d6000803e3d6000fd5b505050506040513d6000823e601f3d908101601f191682016040526121869190810190614b6f565b6003546040516301ffc9a760e01b815263b72080fb60e01b60048201529192506001600160a01b0316906301ffc9a790602401602060405180830381865afa1580156121d6573d6000803e3d6000fd5b505050506040513d601f19601f820116820180604052508101906121fa9190614b52565b156122d957600354604080516332ad05ad60e21b815290516000926001600160a01b03169163cab416b49160048083019260209291908290030181865afa158015612249573d6000803e3d6000fd5b505050506040513d601f19601f8201168201806040525081019061226d9190614a8e565b9050806001600160a01b03166395d89b416040518163ffffffff1660e01b8152600401600060405180830381865afa1580156122ad573d6000803e3d6000fd5b505050506040513d6000823e601f3d908101601f191682016040526122d59190810190614b6f565b9150505b6122e287611a02565b1561232557806040516020016122f89190614bdc565b60408051601f1981840301815282820190915260048252631d93919560e21b602083015293509150612360565b806040516020016123369190614c06565b60408051601f198184030181528282019091526005825264191bd3919560da1b6020830152935091505b604051630557ba5160e01b815273__$996ce4ea27519c2de692a7755c14713365$__90630557ba519061239f908a90879087908b908b90600401614c31565b600060405180830381865af41580156123bc573d6000803e3d6000fd5b505050506040513d6000823e601f3d908101601f191682016040526123e49190810190614b6f565b979650505050505050565b7ff0c57e16840df040f15088dc2f81fe391c3923bec73e23a9662efc9c229c6a008054600160401b810460ff1615906001600160401b03166000811580156124345750825b90506000826001600160401b031660011480156124505750303b155b90508115801561245e575080155b1561247c5760405163f92ee8a960e01b815260040160405180910390fd5b845467ffffffffffffffff1916600117855583156124a657845460ff60401b1916600160401b1785555b6124b48c8c8c8c8c8c613878565b600e80546001600160a01b0319166001600160a01b038816179055831561251557845460ff60401b19168555604051600181527fc7f505b2f371ae2175ee4913f4499e1f2633a7b5936321eed1cdaeb6115181d29060200160405180910390a15b505050505050505050505050565b600061252e84611a02565b6125655760405162461bcd60e51b81526020600482015260086024820152671b9bdd081d93919560c21b60448201526064016109c8565b6000848152600860205260408120906009818686828161258757612587614a55565b602090810292909201358352508101919091526040016000208054909150426001600160401b0390911611156125c257600092505050611313565b8054600160401b90046001600160401b031660015b858110156126f25761260d8787838181106125f4576125f4614a55565b905060200201358560020161314f90919063ffffffff16565b87878381811061261f5761261f614a55565b9050602002013560405160200161265191906b6e6f7420636f6e7461696c7360a01b8152600c810191909152602c0190565b6040516020818303038152906040529061267e5760405162461bcd60e51b81526004016109c891906140ea565b506009600088888481811061269557612695614a55565b6020908102929092013583525081019190915260400160002080549093506001600160401b03166126c7836001614966565b6001600160401b0316036126ea578254600160401b90046001600160401b031691505b6001016125d7565b506001600160401b03908116149695505050505050565b6127133385612e3b565b61272f5760405162461bcd60e51b81526004016109c890614b01565b61273984846112f8565b6127555760405162461bcd60e51b81526004016109c890614c87565b61275e826114c6565b6001600160a01b0316612770856114c6565b6001600160a01b0316146127b35760405162461bcd60e51b815260206004820152600a6024820152693234b3331037bbb732b960b11b60448201526064016109c8565b60008281526008602052604080822054868352912054146128015760405162461bcd60e51b8152602060048201526008602482015267191a5999881bda5960c21b60448201526064016109c8565b61280b82826112f8565b6128275760405162461bcd60e51b81526004016109c890614c87565b6000838152600960205260408082208383529120805482546001600160401b03918216600160401b90910490911610156128bd57805482546001600160401b039182169161287e91600160401b9004166001614966565b6001600160401b03161461289157600080fd5b8154815467ffffffffffffffff19166001600160401b039091161781556128b88686612ee0565b612947565b815481546001600160401b03918216600160401b909104909116101561294757815481546001600160401b039182169161290091600160401b9004166001614966565b6001600160401b03161461291357600080fd5b8154815467ffffffffffffffff60401b1916600160401b918290046001600160401b03169091021781556129478686612ee0565b600086815260086020526040902061296190600201612f95565b6000036129715761297186612f9f565b505050505050565b6000818152600860205260409020606090611313600282016131a1565b6000828152600860205260408120819081906129b460028201612f95565b85106129f15760405162461bcd60e51b815260206004820152600c60248201526b6f7574206f662072616e676560a01b60448201526064016109c8565b6129fe6002820186613143565b60008181526009602052604090205490976001600160401b038083169850600160401b90920490911695509350505050565b6001600160a01b0391821660009081527f80bb2b638cc20bc4d0a60d66940f3ab4a00c1d7b313497ca82fb0b4ab00793056020908152604080832093909416825291909152205460ff1690565b6001546001600160a01b03163314612aca5760405162461bcd60e51b815260206004820152601060248201526f37b7363ca832b73234b733a7bbb732b960811b60448201526064016109c8565b6000546001546040517f70aea8d848e8a90fb7661b227dc522eb6395c3dac71b63cb59edd5c9899b236492612b0d926001600160a01b0391821692911690614a3b565b60405180910390a1600154600080546001600160a01b0319166001600160a01b03909216918217815560405190917fb3d55174552271a4f1aaf36b72f50381e892171636b3fb5447fe00e995e7a37b91612b6991908490614a3b565b60405180910390a1600180546001600160a01b0319166001600160a01b0392909216919091179055565b6002546001600160a01b0316331480612bb657506000546001600160a01b031633145b612bd25760405162461bcd60e51b81526004016109c8906148e0565b6007805467ffffffffffffffff19166001600160401b0392909216919091179055565b6000546001600160a01b03163314612c1f5760405162461bcd60e51b81526004016109c890614a6b565b6001546040517fb3d55174552271a4f1aaf36b72f50381e892171636b3fb5447fe00e995e7a37b91612b69916001600160a01b03909116908490614a3b565b6000818152600860205260408120610a2490600201612f95565b60008381526008602052604081209080805b84811015612cf857858582818110612ca457612ca4614a55565b905060200201359250612cb787846112f8565b15612cf0576000838152600960205260409020805490925042600160401b9091046001600160401b031611612cf057612cf08784612ee0565b600101612c8a565b50612d0583600201612f95565b60000361297157612d1586611a02565b15612d565760405162461bcd60e51b815260206004820152601160248201527018d85b881b9bdd08189d5c9b881d939195607a1b60448201526064016109c8565b61297186612f9f565b60006001600160e01b031982166311a79d5760e11b1480610a245750610a248261391a565b600080612d9083613167565b90506001600160a01b038116610a2457604051637e27328960e01b8152600481018490526024016109c8565b60009081527f80bb2b638cc20bc4d0a60d66940f3ab4a00c1d7b313497ca82fb0b4ab007930460205260409020546001600160a01b031690565b6112f3838383600161396a565b600080516020614e9a833981519152805460011901612e3557604051633ee5aeb560e01b815260040160405180910390fd5b60029055565b6004546000906001600160a01b0390811690841603612e5c57506001610a24565b6000612e6783613167565b9050806001600160a01b0316846001600160a01b03161480612ea25750836001600160a01b0316612e9784610ace565b6001600160a01b0316145b80612eb25750612eb28185612a30565b949350505050565b6000612ec7848484613a80565b50612ed485600554613ad7565b50600554949350505050565b600081815260096020908152604080832080546001600160801b031916905584835260089091529020612f169060020182613af1565b50604080516001808252818301909252600091602080830190803683370190505090508181600081518110612f4d57612f4d614a55565b6020026020010181815250507fdaf2d83211561a92f21e9184ba96aac6a054d6e4132aa90592fd88eeff75879c81604051612f889190614884565b60405180910390a1505050565b6000610a24825490565b612fa881613afd565b600081815260086020526040812081815560018101805467ffffffffffffffff191690559060028201818181612fde8282614002565b50505050505050565b60068054906000612ff783614cad565b90915550506040805180820182526001600160401b0380851682528381166020808401918252600680546000908152600983528681209551865494518616600160401b026001600160801b0319909516951694909417929092179093555486825260089092529190912061307091600290910190613b38565b5060065460408051918252602082018590526001600160401b0380851691830191909152821660608201527fd89b3a389fda649f6511ea8da7b3cda710b4478a1a29d5e7a92c89b0b669aa1290608001612f88565b6001600080516020614e9a83398151915255565b6000806130e7858585613b44565b600085815260086020526040812060010180549293506001600160401b03909216919061311383614cc6565b91906101000a8154816001600160401b0302191690836001600160401b0316021790555050809150509392505050565b60006113138383613c4e565b60008181526001830160205260408120541515611313565b60009081527f80bb2b638cc20bc4d0a60d66940f3ab4a00c1d7b313497ca82fb0b4ab007930260205260409020546001600160a01b031690565b6060600061131383613c78565b6131b83383612e3b565b6131fd5760405162461bcd60e51b81526020600482015260166024820152751b9bdd081bdddb995c881b9bdc88185c1c1c9bdd995960521b60448201526064016109c8565b60008281526008602090815260408083208484526009909252909120805442600160401b9091046001600160401b031610156132695760405162461bcd60e51b815260206004820152600b60248201526a1a5b9d985b1a5908195b9960aa1b60448201526064016109c8565b8054426001600160401b0390911611156132b55760405162461bcd60e51b815260206004820152600d60248201526c1a5b9d985b1a59081cdd185c9d609a1b60448201526064016109c8565b6132c2600283018461314f565b6132de5760405162461bcd60e51b81526004016109c890614c87565b81548154604080513381526001600160a01b0389166020820152908101879052606081018690526080810192909252600160401b90046001600160401b031660a08201527f241f46f4ab26147c933bd52501926d0ff84727224002739590fdfcf7a6559f129060c00160405180910390a15050505050565b6133cc838383604080516060810182528481526001600160a01b0393841660208083019182526001600160401b039485168385019081526000978852601090915292909520905181559351600190940180549151909216600160a01b026001600160e01b03199091169390921692909217179055565b600354604051630585816360e51b8152600481018590526001600160a01b0384811660248301529091169063b0b02c6090604401600060405180830381600087803b15801561341a57600080fd5b505af1158015612fde573d6000803e3d6000fd5b600080516020614e7a8339815191526001600160a01b03831661346f57604051630b61174360e31b81526001600160a01b03841660048201526024016109c8565b6001600160a01b038481166000818152600584016020908152604080832094881680845294825291829020805460ff191687151590811790915591519182527f17307eab39ab6107e8899845ad3d59bd9653f200f220920489ca2b5937696c31910160405180910390a350505050565b6004546000906001600160a01b031633036134fc57506001611313565b6040516331a9108f60e11b8152600481018390526000906001600160a01b03851690636352211e90602401602060405180830381865afa158015613544573d6000803e3d6000fd5b505050506040513d601f19601f820116820180604052508101906135689190614a8e565b9050806001600160a01b0316856001600160a01b031614806135fe575060405163020604bf60e21b8152600481018490526001600160a01b03808716919086169063081812fc90602401602060405180830381865afa1580156135cf573d6000803e3d6000fd5b505050506040513d601f19601f820116820180604052508101906135f39190614a8e565b6001600160a01b0316145b80613673575060405163e985e9c560e01b81526001600160a01b0385169063e985e9c5906136329084908990600401614a3b565b602060405180830381865afa15801561364f573d6000803e3d6000fd5b505050506040513d601f19601f820116820180604052508101906136739190614b52565b95945050505050565b6001600160a01b0383163b1561379e57604051630a85bd0160e11b81526001600160a01b0384169063150b7a02906136be908890889087908790600401614cf1565b6020604051808303816000875af19250505080156136f9575060408051601f3d908101601f191682019092526136f691810190614d2e565b60015b613762573d808015613727576040519150601f19603f3d011682016040523d82523d6000602084013e61372c565b606091505b50805160000361375a57604051633250574960e11b81526001600160a01b03851660048201526024016109c8565b805181602001fd5b6001600160e01b03198116630a85bd0160e11b1461297157604051633250574960e11b81526001600160a01b03851660048201526024016109c8565b5050505050565b6000818152600860205260408120906137c060028301612f95565b905060005b8181101561380457600960006137de6002860184613143565b8152602081019190915260400160002080546001600160801b03191690556001016137c5565b507fdaf2d83211561a92f21e9184ba96aac6a054d6e4132aa90592fd88eeff75879c613832836002016131a1565b60405161383f9190614884565b60405180910390a160028201600081816138598282614002565b505083546000908152600a6020526040812055506112f3905083612f9f565b613880613cd4565b61388a8686613d1f565b613892613d31565b6138c58282600080546001600160a01b039384166001600160a01b03199182161790915560028054929093169116179055565b5050600380546001600160a01b039384166001600160a01b031991821617909155600480549290931691161790555050600b805460ff191660011790556007805467ffffffffffffffff191662ed4e00179055565b60006001600160e01b031982166380ac58cd60e01b148061394b57506001600160e01b03198216635b5e139f60e01b145b80610a2457506301ffc9a760e01b6001600160e01b0319831614610a24565b600080516020614e7a833981519152818061398d57506001600160a01b03831615155b15613a4f57600061399d85612d84565b90506001600160a01b038416158015906139c95750836001600160a01b0316816001600160a01b031614155b80156139dc57506139da8185612a30565b155b15613a055760405163a9fbf51f60e01b81526001600160a01b03851660048201526024016109c8565b8215613a4d5784866001600160a01b0316826001600160a01b03167f8c5be1e5ebec7d5bd14f71427d1e84f3dd0314c0f7b2291e5b200ac8c7c3b92560405160405180910390a45b505b600093845260040160205250506040902080546001600160a01b0319166001600160a01b0392909216919091179055565b6005805460009182613a9183614cad565b909155505060058054600090815260086020526040902085815560018101805467ffffffffffffffff191690559054613acb908585612fe7565b50506005549392505050565b610aee828260405180602001604052806000815250613d41565b60006113138383613d59565b6000613b0c60008360006130d9565b90506001600160a01b038116610aee57604051637e27328960e01b8152600481018390526024016109c8565b60006113138383613e4c565b6000600080516020614e7a83398151915281613b5f85613167565b90506001600160a01b03841615613b7b57613b7b818587613e9b565b6001600160a01b03811615613bbb57613b9860008660008061396a565b6001600160a01b0381166000908152600383016020526040902080546000190190555b6001600160a01b03861615613bec576001600160a01b03861660009081526003830160205260409020805460010190555b600085815260028301602052604080822080546001600160a01b0319166001600160a01b038a811691821790925591518893918516917fddf252ad1be2c89b69c2b068fc378daa952ba7f163c4a11628f55a4df523b3ef91a495945050505050565b6000826000018281548110613c6557613c65614a55565b9060005260206000200154905092915050565b606081600001805480602002602001604051908101604052809291908181526020018280548015613cc857602002820191906000526020600020905b815481526020019060010190808311613cb4575b50505050509050919050565b7ff0c57e16840df040f15088dc2f81fe391c3923bec73e23a9662efc9c229c6a0054600160401b900460ff16613d1d57604051631afcd79f60e31b815260040160405180910390fd5b565b613d27613cd4565b610aee8282613eff565b613d39613cd4565b613d1d613f30565b613d4b8383613f38565b6112f333600085858561367c565b60008181526001830160205260408120548015613e42576000613d7d600183614d4b565b8554909150600090613d9190600190614d4b565b9050808214613df6576000866000018281548110613db157613db1614a55565b9060005260206000200154905080876000018481548110613dd457613dd4614a55565b6000918252602080832090910192909255918252600188019052604090208390555b8554869080613e0757613e07614d5e565b600190038181906000526020600020016000905590558560010160008681526020019081526020016000206000905560019350505050610a24565b6000915050610a24565b6000818152600183016020526040812054613e9357508154600181810184556000848152602080822090930184905584548482528286019093526040902091909155610a24565b506000610a24565b613ea6838383613f9d565b6112f3576001600160a01b038316613ed457604051637e27328960e01b8152600481018290526024016109c8565b60405163177e802f60e01b81526001600160a01b0383166004820152602481018290526044016109c8565b613f07613cd4565b600080516020614e7a83398151915280613f218482614dbb565b50600181016111828382614dbb565b6130c5613cd4565b6001600160a01b038216613f6257604051633250574960e11b8152600060048201526024016109c8565b6000613f70838360006130d9565b90506001600160a01b038116156112f3576040516339e3563760e11b8152600060048201526024016109c8565b60006001600160a01b03831615801590612eb25750826001600160a01b0316846001600160a01b03161480613fd75750613fd78484612a30565b80612eb25750826001600160a01b0316613ff083612dbc565b6001600160a01b031614949350505050565b50805460008255906000526020600020908101906140209190614023565b50565b5b808211156140385760008155600101614024565b5090565b801515811461402057600080fd5b60006020828403121561405c57600080fd5b81356113138161403c565b6001600160e01b03198116811461402057600080fd5b60006020828403121561408f57600080fd5b813561131381614067565b60005b838110156140b557818101518382015260200161409d565b50506000910152565b600081518084526140d681602086016020860161409a565b601f01601f19169290920160200192915050565b60208152600061131360208301846140be565b60006020828403121561410f57600080fd5b5035919050565b6001600160a01b038116811461402057600080fd5b80356119fd81614116565b6000806040838503121561414957600080fd5b823561415481614116565b946020939093013593505050565b80356001600160401b03811681146119fd57600080fd5b60008060008060008060c0878903121561419257600080fd5b86359550602087013594506141a960408801614162565b93506141b760608801614162565b925060808701356141c781614116565b915060a08701356141d781614116565b809150509295509295509295565b6000806000806000608086880312156141fd57600080fd5b853561420881614116565b9450602086013561421881614116565b93506040860135925060608601356001600160401b0381111561423a57600080fd5b8601601f8101881361424b57600080fd5b80356001600160401b0381111561426157600080fd5b88602082840101111561427357600080fd5b959894975092955050506020019190565b60006020828403121561429657600080fd5b813561131381614116565b6000806000606084860312156142b657600080fd5b83356142c181614116565b925060208401356142d181614116565b929592945050506040919091013590565b600080604083850312156142f557600080fd5b50508035926020909101359150565b600081518084526020840193506020830160005b82811015614336578151865260209586019590910190600101614318565b5093949350505050565b600081518084526020840193506020830160005b828110156143365781516001600160401b0316865260209586019590910190600101614354565b85815260a06020820152600061439460a0830187614304565b82810360408401526143a68187614340565b905082810360608401526143ba8186614340565b9150506001600160401b03831660808301529695505050505050565b6000806000606084860312156143eb57600080fd5b83356143f681614116565b95602085013595506040909401359392505050565b6000806040838503121561441e57600080fd5b823561442981614116565b915060208301356144398161403c565b809150509250929050565b60008083601f84011261445657600080fd5b5081356001600160401b0381111561446d57600080fd5b6020830191508360208260051b850101111561448857600080fd5b9250929050565b600080602083850312156144a257600080fd5b82356001600160401b038111156144b857600080fd5b6144c485828601614444565b90969095509350505050565b6000602082016020835280845180835260408501915060408160051b86010192506020860160005b8281101561452957603f198786030184526145148583516140be565b945060209384019391909101906001016144f8565b50929695505050505050565b634e487b7160e01b600052604160045260246000fd5b604051601f8201601f191681016001600160401b038111828210171561457357614573614535565b604052919050565b60006001600160401b0382111561459457614594614535565b50601f01601f191660200190565b60006145b56145b08461457b565b61454b565b90508281528383830111156145c957600080fd5b828260208301376000602084830101529392505050565b600080600080608085870312156145f657600080fd5b843561460181614116565b9350602085013561461181614116565b92506040850135915060608501356001600160401b0381111561463357600080fd5b8501601f8101871361464457600080fd5b614653878235602084016145a2565b91505092959194509250565b60008060006040848603121561467457600080fd5b8335925060208401356001600160401b0381111561469157600080fd5b61469d86828701614444565b9497909650939450505050565b600080604083850312156146bd57600080fd5b82356001600160401b038111156146d357600080fd5b8301601f810185136146e457600080fd5b80356001600160401b038111156146fd576146fd614535565b8060051b61470d6020820161454b565b9182526020818401810192908101908884111561472957600080fd5b6020850194505b8385101561474f57843580835260209586019590935090910190614730565b80965050505050506147636020840161412b565b90509250929050565b600082601f83011261477d57600080fd5b611313838335602085016145a2565b600080600080600080600060e0888a0312156147a757600080fd5b87356001600160401b038111156147bd57600080fd5b6147c98a828b0161476c565b97505060208801356001600160401b038111156147e557600080fd5b6147f18a828b0161476c565b965050604088013561480281614116565b9450606088013561481281614116565b9350608088013561482281614116565b925060a088013561483281614116565b915060c088013561484281614116565b8091505092959891949750929550565b6000806000806080858703121561486857600080fd5b5050823594602084013594506040840135936060013592509050565b6020815260006113136020830184614304565b600080604083850312156148aa57600080fd5b82356148b581614116565b9150602083013561443981614116565b6000602082840312156148d757600080fd5b61131382614162565b60208082526009908201526837b7363ca0b236b4b760b91b604082015260600190565b600181811c9082168061491757607f821691505b60208210810361493757634e487b7160e01b600052602260045260246000fd5b50919050565b634e487b7160e01b600052601160045260246000fd5b80820180821115610a2457610a2461493d565b6001600160401b038181168382160190811115610a2457610a2461493d565b6001600160401b038281168282160390811115610a2457610a2461493d565b8051600090602083018282156143365781516001600160401b0316865260209586019590910190600101614354565b85815260006020820186516020880160005b82811015614a035781518452602093840193909101906001016149e5565b505050614a19614a1382886149a4565b866149a4565b60c09490941b6001600160c01b03191684525050600890910195945050505050565b6001600160a01b0392831681529116602082015260400190565b634e487b7160e01b600052603260045260246000fd5b60208082526009908201526837b7363ca7bbb732b960b91b604082015260600190565b600060208284031215614aa057600080fd5b815161131381614116565b6000808335601e19843603018112614ac257600080fd5b8301803591506001600160401b03821115614adc57600080fd5b60200191503681900382131561448857600080fd5b8183823760009101908152919050565b60208082526031908201527f4552433732313a207472616e736665722063616c6c6572206973206e6f74206f6040820152701ddb995c881b9bdc88185c1c1c9bdd9959607a1b606082015260800190565b600060208284031215614b6457600080fd5b81516113138161403c565b600060208284031215614b8157600080fd5b81516001600160401b03811115614b9757600080fd5b8201601f81018413614ba857600080fd5b8051614bb66145b08261457b565b818152856020838501011115614bcb57600080fd5b61367382602083016020860161409a565b61762d60f01b815260008251614bf981600285016020870161409a565b9190910160020192915050565b62646f2d60e81b815260008251614c2481600385016020870161409a565b9190910160030192915050565b85815260a060208201526000614c4a60a08301876140be565b8281036040840152614c5c81876140be565b9150506001600160401b03841660608301526001600160401b03831660808301529695505050505050565b6020808252600c908201526b6e6f7420636f6e7461696e7360a01b604082015260600190565b600060018201614cbf57614cbf61493d565b5060010190565b60006001600160401b0382166001600160401b038103614ce857614ce861493d565b60010192915050565b6001600160a01b0385811682528416602082015260408101839052608060608201819052600090614d24908301846140be565b9695505050505050565b600060208284031215614d4057600080fd5b815161131381614067565b81810381811115610a2457610a2461493d565b634e487b7160e01b600052603160045260246000fd5b601f8211156112f357806000526020600020601f840160051c81016020851015614d9b5750805b601f840160051c820191505b8181101561379e5760008155600101614da7565b81516001600160401b03811115614dd457614dd4614535565b614de881614de28454614903565b84614d74565b6020601f821160018114614e1c5760008315614e045750848201515b600019600385901b1c1916600184901b17845561379e565b600084815260208120601f198516915b82811015614e4c5787850151825560209485019460019092019101614e2c565b5084821015614e6a5786840151600019600387901b60f8161c191681555b50505050600190811b0190555056fe80bb2b638cc20bc4d0a60d66940f3ab4a00c1d7b313497ca82fb0b4ab00793009b779b17422d0df92223018b32b4d1fa46e071723d6817e2486d003becc55f00a2646970667358221220819bc5df40cca33ece30bbd5aacc05426f3062fcdb7b92c4a32bd3013721f84564736f6c634300081c0033",
  "linkReferences": {
    "contracts/DoubleSVG.sol": {
      "DoubleSVG": [
        {
          "length": 20,
          "start": 9102
        }
      ]
    }
  },
  "deployedLinkReferences": {
    "contracts/DoubleSVG.sol": {
      "DoubleSVG": [
        {
          "length": 20,
          "start": 9071
        }
      ]
    }
  }
}