{
  "_format": "hh-sol-artifact-1",
  "contractName": "OwnableContract",
  "sourceName": "contracts/OwnableContract.sol",
  "abi": [
    {
      "anonymous": false,
      "inputs": [
        {
          "indexed": false,
          "internalType": "address",
          "name": "oldAdmin",
          "type": "address"
        },
        {
          "indexed": false,
          "internalType": "address",
          "name": "newAdmin",
          "type": "address"
        }
      ],
      "name": "NewAdmin",
      "type": "event"
    },
    {
      "anonymous": false,
      "inputs": [
        {
          "indexed": false,
          "internalType": "address",
          "name": "oldOwner",
          "type": "address"
        },
        {
          "indexed": false,
          "internalType": "address",
          "name": "newOwner",
          "type": "address"
        }
      ],
      "name": "NewOwner",
      "type": "event"
    },
    {
      "anonymous": false,
      "inputs": [
        {
          "indexed": false,
          "internalType": "address",
          "name": "oldPendingOwner",
          "type": "address"
        },
        {
          "indexed": false,
          "internalType": "address",
          "name": "newPendingOwner",
          "type": "address"
        }
      ],
      "name": "NewPendingOwner",
      "type": "event"
    },
    {
      "inputs": [],
      "name": "acceptOwner",
      "outputs": [],
      "stateMutability": "nonpayable",
      "type": "function"
    },
    {
      "inputs": [],
      "name": "admin",
      "outputs": [
        {
          "internalType": "address",
          "name": "",
          "type": "address"
        }
      ],
      "stateMutability": "view",
      "type": "function"
    },
    {
      "inputs": [],
      "name": "owner",
      "outputs": [
        {
          "internalType": "address",
          "name": "",
          "type": "address"
        }
      ],
      "stateMutability": "view",
      "type": "function"
    },
    {
      "inputs": [],
      "name": "pendingOwner",
      "outputs": [
        {
          "internalType": "address",
          "name": "",
          "type": "address"
        }
      ],
      "stateMutability": "view",
      "type": "function"
    },
    {
      "inputs": [],
      "name": "renounceOwnership",
      "outputs": [],
      "stateMutability": "nonpayable",
      "type": "function"
    },
    {
      "inputs": [
        {
          "internalType": "address",
          "name": "newAdmin",
          "type": "address"
        }
      ],
      "name": "setAdmin",
      "outputs": [],
      "stateMutability": "nonpayable",
      "type": "function"
    },
    {
      "inputs": [
        {
          "internalType": "address",
          "name": "_pendingOwner",
          "type": "address"
        }
      ],
      "name": "transferOwnership",
      "outputs": [],
      "stateMutability": "nonpayable",
      "type": "function"
    }
  ],
  "bytecode": "0x6080604052348015600f57600080fd5b506104dd8061001f6000396000f3fe608060405234801561001057600080fd5b506004361061007d5760003560e01c8063e30c39781161005b578063e30c3978146100ce578063ebbc4965146100e1578063f2fde38b146100e9578063f851a440146100fc57600080fd5b8063704b6c0214610082578063715018a6146100975780638da5cb5b1461009f575b600080fd5b610095610090366004610454565b61010f565b005b6100956101ab565b6000546100b2906001600160a01b031681565b6040516001600160a01b03909116815260200160405180910390f35b6001546100b2906001600160a01b031681565b6100956102cf565b6100956100f7366004610454565b6103e6565b6002546100b2906001600160a01b031681565b6000546001600160a01b031633146101425760405162461bcd60e51b815260040161013990610484565b60405180910390fd5b600254604080516001600160a01b03928316815291831660208301527ff9ffabca9c8276e99321725bcb43fb076a6c66a54b7f21c4e8146d8519b417dc910160405180910390a1600280546001600160a01b0319166001600160a01b0392909216919091179055565b6000546001600160a01b031633146101d55760405162461bcd60e51b815260040161013990610484565b60008054604080516001600160a01b03909216825260208201929092527f70aea8d848e8a90fb7661b227dc522eb6395c3dac71b63cb59edd5c9899b2364910160405180910390a1600254604080516001600160a01b039092168252600060208301527ff9ffabca9c8276e99321725bcb43fb076a6c66a54b7f21c4e8146d8519b417dc910160405180910390a1600154604080516001600160a01b039092168252600060208301527fb3d55174552271a4f1aaf36b72f50381e892171636b3fb5447fe00e995e7a37b910160405180910390a1600080546001600160a01b03199081169091556001805482169055600280549091169055565b6001546001600160a01b0316331461031c5760405162461bcd60e51b815260206004820152601060248201526f37b7363ca832b73234b733a7bbb732b960811b6044820152606401610139565b600054600154604080516001600160a01b0393841681529290911660208301527f70aea8d848e8a90fb7661b227dc522eb6395c3dac71b63cb59edd5c9899b2364910160405180910390a1600154600080546001600160a01b0319166001600160a01b039092169182178155604080519283526020830182905290917fb3d55174552271a4f1aaf36b72f50381e892171636b3fb5447fe00e995e7a37b91015b60405180910390a1600180546001600160a01b0319166001600160a01b0392909216919091179055565b6000546001600160a01b031633146104105760405162461bcd60e51b815260040161013990610484565b600154604080516001600160a01b03928316815291831660208301527fb3d55174552271a4f1aaf36b72f50381e892171636b3fb5447fe00e995e7a37b91016103bc565b60006020828403121561046657600080fd5b81356001600160a01b038116811461047d57600080fd5b9392505050565b60208082526009908201526837b7363ca7bbb732b960b91b60408201526060019056fea26469706673582212200e64fdbd99402f9b1b3481cd97b9142ed26d606346117e38d2bc24d92ada76b164736f6c634300081c0033",
  "linkReferences": {},
  "deployedLinkReferences": {}
}