{
  "_format": "hh-sol-artifact-1",
  "contractName": "ERC4907",
  "sourceName": "contracts/dualRoles/ERC4907.sol",
  "abi": [
    {
      "inputs": [
        {
          "internalType": "string",
          "name": "name_",
          "type": "string"
        },
        {
          "internalType": "string",
          "name": "symbol_",
          "type": "string"
        }
      ],
      "stateMutability": "nonpayable",
      "type": "constructor"
    },
    {
      "inputs": [
        {
          "internalType": "address",
          "name": "sender",
          "type": "address"
        },
        {
          "internalType": "uint256",
          "name": "tokenId",
          "type": "uint256"
        },
        {
          "internalType": "address",
          "name": "owner",
          "type": "address"
        }
      ],
      "name": "ERC721IncorrectOwner",
      "type": "error"
    },
    {
      "inputs": [
        {
          "internalType": "address",
          "name": "operator",
          "type": "address"
        },
        {
          "internalType": "uint256",
          "name": "tokenId",
          "type": "uint256"
        }
      ],
      "name": "ERC721InsufficientApproval",
      "type": "error"
    },
    {
      "inputs": [
        {
          "internalType": "address",
          "name": "approver",
          "type": "address"
        }
      ],
      "name": "ERC721InvalidApprover",
      "type": "error"
    },
    {
      "inputs": [
        {
          "internalType": "address",
          "name": "operator",
          "type": "address"
        }
      ],
      "name": "ERC721InvalidOperator",
      "type": "error"
    },
    {
      "inputs": [
        {
          "internalType": "address",
          "name": "owner",
          "type": "address"
        }
      ],
      "name": "ERC721InvalidOwner",
      "type": "error"
    },
    {
      "inputs": [
        {
          "internalType": "address",
          "name": "receiver",
          "type": "address"
        }
      ],
      "name": "ERC721InvalidReceiver",
      "type": "error"
    },
    {
      "inputs": [
        {
          "internalType": "address",
          "name": "sender",
          "type": "address"
        }
      ],
      "name": "ERC721InvalidSender",
      "type": "error"
    },
    {
      "inputs": [
        {
          "internalType": "uint256",
          "name": "tokenId",
          "type": "uint256"
        }
      ],
      "name": "ERC721NonexistentToken",
      "type": "error"
    },
    {
      "anonymous": false,
      "inputs": [
        {
          "indexed": true,
          "internalType": "address",
          "name": "owner",
          "type": "address"
        },
        {
          "indexed": true,
          "internalType": "address",
          "name": "approved",
          "type": "address"
        },
        {
          "indexed": true,
          "internalType": "uint256",
          "name": "tokenId",
          "type": "uint256"
        }
      ],
      "name": "Approval",
      "type": "event"
    },
    {
      "anonymous": false,
      "inputs": [
        {
          "indexed": true,
          "internalType": "address",
          "name": "owner",
          "type": "address"
        },
        {
          "indexed": true,
          "internalType": "address",
          "name": "operator",
          "type": "address"
        },
        {
          "indexed": false,
          "internalType": "bool",
          "name": "approved",
          "type": "bool"
        }
      ],
      "name": "ApprovalForAll",
      "type": "event"
    },
    {
      "anonymous": false,
      "inputs": [
        {
          "indexed": true,
          "internalType": "address",
          "name": "from",
          "type": "address"
        },
        {
          "indexed": true,
          "internalType": "address",
          "name": "to",
          "type": "address"
        },
        {
          "indexed": true,
          "internalType": "uint256",
          "name": "tokenId",
          "type": "uint256"
        }
      ],
      "name": "Transfer",
      "type": "event"
    },
    {
      "anonymous": false,
      "inputs": [
        {
          "indexed": true,
          "internalType": "uint256",
          "name": "tokenId",
          "type": "uint256"
        },
        {
          "indexed": true,
          "internalType": "address",
          "name": "user",
          "type": "address"
        },
        {
          "indexed": false,
          "internalType": "uint64",
          "name": "expires",
          "type": "uint64"
        }
      ],
      "name": "UpdateUser",
      "type": "event"
    },
    {
      "inputs": [
        {
          "internalType": "address",
          "name": "to",
          "type": "address"
        },
        {
          "internalType": "uint256",
          "name": "tokenId",
          "type": "uint256"
        }
      ],
      "name": "approve",
      "outputs": [],
      "stateMutability": "nonpayable",
      "type": "function"
    },
    {
      "inputs": [
        {
          "internalType": "address",
          "name": "owner",
          "type": "address"
        }
      ],
      "name": "balanceOf",
      "outputs": [
        {
          "internalType": "uint256",
          "name": "",
          "type": "uint256"
        }
      ],
      "stateMutability": "view",
      "type": "function"
    },
    {
      "inputs": [
        {
          "internalType": "uint256",
          "name": "tokenId",
          "type": "uint256"
        }
      ],
      "name": "getApproved",
      "outputs": [
        {
          "internalType": "address",
          "name": "",
          "type": "address"
        }
      ],
      "stateMutability": "view",
      "type": "function"
    },
    {
      "inputs": [
        {
          "internalType": "address",
          "name": "owner",
          "type": "address"
        },
        {
          "internalType": "address",
          "name": "operator",
          "type": "address"
        }
      ],
      "name": "isApprovedForAll",
      "outputs": [
        {
          "internalType": "bool",
          "name": "",
          "type": "bool"
        }
      ],
      "stateMutability": "view",
      "type": "function"
    },
    {
      "inputs": [],
      "name": "name",
      "outputs": [
        {
          "internalType": "string",
          "name": "",
          "type": "string"
        }
      ],
      "stateMutability": "view",
      "type": "function"
    },
    {
      "inputs": [
        {
          "internalType": "uint256",
          "name": "tokenId",
          "type": "uint256"
        }
      ],
      "name": "ownerOf",
      "outputs": [
        {
          "internalType": "address",
          "name": "",
          "type": "address"
        }
      ],
      "stateMutability": "view",
      "type": "function"
    },
    {
      "inputs": [
        {
          "internalType": "address",
          "name": "from",
          "type": "address"
        },
        {
          "internalType": "address",
          "name": "to",
          "type": "address"
        },
        {
          "internalType": "uint256",
          "name": "tokenId",
          "type": "uint256"
        }
      ],
      "name": "safeTransferFrom",
      "outputs": [],
      "stateMutability": "nonpayable",
      "type": "function"
    },
    {
      "inputs": [
        {
          "internalType": "address",
          "name": "from",
          "type": "address"
        },
        {
          "internalType": "address",
          "name": "to",
          "type": "address"
        },
        {
          "internalType": "uint256",
          "name": "tokenId",
          "type": "uint256"
        },
        {
          "internalType": "bytes",
          "name": "data",
          "type": "bytes"
        }
      ],
      "name": "safeTransferFrom",
      "outputs": [],
      "stateMutability": "nonpayable",
      "type": "function"
    },
    {
      "inputs": [
        {
          "internalType": "address",
          "name": "operator",
          "type": "address"
        },
        {
          "internalType": "bool",
          "name": "approved",
          "type": "bool"
        }
      ],
      "name": "setApprovalForAll",
      "outputs": [],
      "stateMutability": "nonpayable",
      "type": "function"
    },
    {
      "inputs": [
        {
          "internalType": "uint256",
          "name": "tokenId",
          "type": "uint256"
        },
        {
          "internalType": "address",
          "name": "user",
          "type": "address"
        },
        {
          "internalType": "uint64",
          "name": "expires",
          "type": "uint64"
        }
      ],
      "name": "setUser",
      "outputs": [],
      "stateMutability": "nonpayable",
      "type": "function"
    },
    {
      "inputs": [
        {
          "internalType": "bytes4",
          "name": "interfaceId",
          "type": "bytes4"
        }
      ],
      "name": "supportsInterface",
      "outputs": [
        {
          "internalType": "bool",
          "name": "",
          "type": "bool"
        }
      ],
      "stateMutability": "view",
      "type": "function"
    },
    {
      "inputs": [],
      "name": "symbol",
      "outputs": [
        {
          "internalType": "string",
          "name": "",
          "type": "string"
        }
      ],
      "stateMutability": "view",
      "type": "function"
    },
    {
      "inputs": [
        {
          "internalType": "uint256",
          "name": "tokenId",
          "type": "uint256"
        }
      ],
      "name": "tokenURI",
      "outputs": [
        {
          "internalType": "string",
          "name": "",
          "type": "string"
        }
      ],
      "stateMutability": "view",
      "type": "function"
    },
    {
      "inputs": [
        {
          "internalType": "address",
          "name": "from",
          "type": "address"
        },
        {
          "internalType": "address",
          "name": "to",
          "type": "address"
        },
        {
          "internalType": "uint256",
          "name": "tokenId",
          "type": "uint256"
        }
      ],
      "name": "transferFrom",
      "outputs": [],
      "stateMutability": "nonpayable",
      "type": "function"
    },
    {
      "inputs": [
        {
          "internalType": "uint256",
          "name": "tokenId",
          "type": "uint256"
        }
      ],
      "name": "userExpires",
      "outputs": [
        {
          "internalType": "uint256",
          "name": "",
          "type": "uint256"
        }
      ],
      "stateMutability": "view",
      "type": "function"
    },
    {
      "inputs": [
        {
          "internalType": "uint256",
          "name": "tokenId",
          "type": "uint256"
        }
      ],
      "name": "userOf",
      "outputs": [
        {
          "internalType": "address",
          "name": "",
          "type": "address"
        }
      ],
      "stateMutability": "view",
      "type": "function"
    }
  ],
  "bytecode": "0x608060405234801561001057600080fd5b506040516114c53803806114c583398101604081905261002f9161010d565b8181600061003d83826101ff565b50600161004a82826101ff565b50505050506102bd565b634e487b7160e01b600052604160045260246000fd5b600082601f83011261007b57600080fd5b81516001600160401b0381111561009457610094610054565b604051601f8201601f19908116603f011681016001600160401b03811182821017156100c2576100c2610054565b6040528181528382016020018510156100da57600080fd5b60005b828110156100f9576020818601810151838301820152016100dd565b506000918101602001919091529392505050565b6000806040838503121561012057600080fd5b82516001600160401b0381111561013657600080fd5b6101428582860161006a565b602085015190935090506001600160401b0381111561016057600080fd5b61016c8582860161006a565b9150509250929050565b600181811c9082168061018a57607f821691505b6020821081036101aa57634e487b7160e01b600052602260045260246000fd5b50919050565b601f8211156101fa57806000526020600020601f840160051c810160208510156101d75750805b601f840160051c820191505b818110156101f757600081556001016101e3565b50505b505050565b81516001600160401b0381111561021857610218610054565b61022c816102268454610176565b846101b0565b6020601f82116001811461026057600083156102485750848201515b600019600385901b1c1916600184901b1784556101f7565b600084815260208120601f198516915b828110156102905787850151825560209485019460019092019101610270565b50848210156102ae5786840151600019600387901b60f8161c191681555b50505050600190811b01905550565b6111f9806102cc6000396000f3fe608060405234801561001057600080fd5b50600436106101005760003560e01c80638fc88c4811610097578063c2f1f14a11610066578063c2f1f14a1461023b578063c87b56dd1461024e578063e030565e14610261578063e985e9c51461027457600080fd5b80638fc88c48146101dc57806395d89b411461020d578063a22cb46514610215578063b88d4fde1461022857600080fd5b806323b872dd116100d357806323b872dd1461018257806342842e0e146101955780636352211e146101a857806370a08231146101bb57600080fd5b806301ffc9a71461010557806306fdde031461012d578063081812fc14610142578063095ea7b31461016d575b600080fd5b610118610113366004610e18565b610287565b60405190151581526020015b60405180910390f35b6101356102b2565b6040516101249190610e85565b610155610150366004610e98565b610344565b6040516001600160a01b039091168152602001610124565b61018061017b366004610ec8565b61036d565b005b610180610190366004610ef2565b61037c565b6101806101a3366004610ef2565b61040c565b6101556101b6366004610e98565b61042c565b6101ce6101c9366004610f2f565b610437565b604051908152602001610124565b6101ce6101ea366004610e98565b600090815260066020526040902054600160a01b900467ffffffffffffffff1690565b61013561047f565b610180610223366004610f4a565b61048e565b610180610236366004610f9c565b610499565b610155610249366004610e98565b6104b1565b61013561025c366004610e98565b610501565b61018061026f366004611080565b610576565b6101186102823660046110cd565b610667565b60006001600160e01b03198216632b424ad760e21b14806102ac57506102ac82610695565b92915050565b6060600080546102c190611100565b80601f01602080910402602001604051908101604052809291908181526020018280546102ed90611100565b801561033a5780601f1061030f5761010080835404028352916020019161033a565b820191906000526020600020905b81548152906001019060200180831161031d57829003601f168201915b5050505050905090565b600061034f826106e5565b506000828152600460205260409020546001600160a01b03166102ac565b61037882823361071e565b5050565b6001600160a01b0382166103ab57604051633250574960e11b8152600060048201526024015b60405180910390fd5b60006103b883833361072b565b9050836001600160a01b0316816001600160a01b031614610406576040516364283d7b60e01b81526001600160a01b03808616600483015260248201849052821660448201526064016103a2565b50505050565b61042783838360405180602001604052806000815250610499565b505050565b60006102ac826106e5565b60006001600160a01b038216610463576040516322718ad960e21b8152600060048201526024016103a2565b506001600160a01b031660009081526003602052604090205490565b6060600180546102c190611100565b6103783383836107ad565b6104a484848461037c565b610406338585858561084c565b60008181526006602052604081205442600160a01b90910467ffffffffffffffff16106104f457506000908152600660205260409020546001600160a01b031690565b506000919050565b919050565b606061050c826106e5565b50600061052460408051602081019091526000815290565b90506000815111610544576040518060200160405280600081525061056f565b8061054e84610977565b60405160200161055f92919061113a565b6040516020818303038152906040525b9392505050565b6105803384610a0a565b6105e65760405162461bcd60e51b815260206004820152603160248201527f4552433732313a207472616e736665722063616c6c6572206973206e6f74206f6044820152701ddb995c881b9bdc88185c1c1c9bdd9959607a1b60648201526084016103a2565b60008381526006602090815260409182902080546001600160a01b0386166001600160e01b03199091168117600160a01b67ffffffffffffffff871690810291909117835593519384529092909186917f4e06b4e7000e659094299b3533b47b6aa8ad048e95e872d23d1f4ee55af89cfe910160405180910390a350505050565b6001600160a01b03918216600090815260056020908152604080832093909416825291909152205460ff1690565b60006001600160e01b031982166380ac58cd60e01b14806106c657506001600160e01b03198216635b5e139f60e01b145b806102ac57506301ffc9a760e01b6001600160e01b03198316146102ac565b6000818152600260205260408120546001600160a01b0316806102ac57604051637e27328960e01b8152600481018490526024016103a2565b6104278383836001610a61565b600080610739858585610b67565b9050846001600160a01b0316816001600160a01b0316146107a557600084815260066020908152604080832080546001600160e01b03191690555182815286917f4e06b4e7000e659094299b3533b47b6aa8ad048e95e872d23d1f4ee55af89cfe910160405180910390a35b949350505050565b6001600160a01b0382166107df57604051630b61174360e31b81526001600160a01b03831660048201526024016103a2565b6001600160a01b03838116600081815260056020908152604080832094871680845294825291829020805460ff191686151590811790915591519182527f17307eab39ab6107e8899845ad3d59bd9653f200f220920489ca2b5937696c31910160405180910390a3505050565b6001600160a01b0383163b1561097057604051630a85bd0160e11b81526001600160a01b0384169063150b7a029061088e908890889087908790600401611169565b6020604051808303816000875af19250505080156108c9575060408051601f3d908101601f191682019092526108c6918101906111a6565b60015b610932573d8080156108f7576040519150601f19603f3d011682016040523d82523d6000602084013e6108fc565b606091505b50805160000361092a57604051633250574960e11b81526001600160a01b03851660048201526024016103a2565b805181602001fd5b6001600160e01b03198116630a85bd0160e11b1461096e57604051633250574960e11b81526001600160a01b03851660048201526024016103a2565b505b5050505050565b6060600061098483610c60565b600101905060008167ffffffffffffffff8111156109a4576109a4610f86565b6040519080825280601f01601f1916602001820160405280156109ce576020820181803683370190505b5090508181016020015b600019016f181899199a1a9b1b9c1cb0b131b232b360811b600a86061a8153600a85049450846109d857509392505050565b600080610a168361042c565b9050806001600160a01b0316846001600160a01b03161480610a515750836001600160a01b0316610a4684610344565b6001600160a01b0316145b806107a557506107a58185610667565b8080610a7557506001600160a01b03821615155b15610b37576000610a85846106e5565b90506001600160a01b03831615801590610ab15750826001600160a01b0316816001600160a01b031614155b8015610ac45750610ac28184610667565b155b15610aed5760405163a9fbf51f60e01b81526001600160a01b03841660048201526024016103a2565b8115610b355783856001600160a01b0316826001600160a01b03167f8c5be1e5ebec7d5bd14f71427d1e84f3dd0314c0f7b2291e5b200ac8c7c3b92560405160405180910390a45b505b5050600090815260046020526040902080546001600160a01b0319166001600160a01b0392909216919091179055565b6000828152600260205260408120546001600160a01b0390811690831615610b9457610b94818486610d38565b6001600160a01b03811615610bd257610bb1600085600080610a61565b6001600160a01b038116600090815260036020526040902080546000190190555b6001600160a01b03851615610c01576001600160a01b0385166000908152600360205260409020805460010190555b60008481526002602052604080822080546001600160a01b0319166001600160a01b0389811691821790925591518793918516917fddf252ad1be2c89b69c2b068fc378daa952ba7f163c4a11628f55a4df523b3ef91a4949350505050565b60008072184f03e93ff9f4daa797ed6e38ed64bf6a1f0160401b8310610c9f5772184f03e93ff9f4daa797ed6e38ed64bf6a1f0160401b830492506040015b6d04ee2d6d415b85acef81000000008310610ccb576d04ee2d6d415b85acef8100000000830492506020015b662386f26fc100008310610ce957662386f26fc10000830492506010015b6305f5e1008310610d01576305f5e100830492506008015b6127108310610d1557612710830492506004015b60648310610d27576064830492506002015b600a83106102ac5760010192915050565b610d43838383610d9c565b610427576001600160a01b038316610d7157604051637e27328960e01b8152600481018290526024016103a2565b60405163177e802f60e01b81526001600160a01b0383166004820152602481018290526044016103a2565b60006001600160a01b038316158015906107a55750826001600160a01b0316846001600160a01b03161480610dd65750610dd68484610667565b806107a55750506000908152600460205260409020546001600160a01b03908116911614919050565b6001600160e01b031981168114610e1557600080fd5b50565b600060208284031215610e2a57600080fd5b813561056f81610dff565b60005b83811015610e50578181015183820152602001610e38565b50506000910152565b60008151808452610e71816020860160208601610e35565b601f01601f19169290920160200192915050565b60208152600061056f6020830184610e59565b600060208284031215610eaa57600080fd5b5035919050565b80356001600160a01b03811681146104fc57600080fd5b60008060408385031215610edb57600080fd5b610ee483610eb1565b946020939093013593505050565b600080600060608486031215610f0757600080fd5b610f1084610eb1565b9250610f1e60208501610eb1565b929592945050506040919091013590565b600060208284031215610f4157600080fd5b61056f82610eb1565b60008060408385031215610f5d57600080fd5b610f6683610eb1565b915060208301358015158114610f7b57600080fd5b809150509250929050565b634e487b7160e01b600052604160045260246000fd5b60008060008060808587031215610fb257600080fd5b610fbb85610eb1565b9350610fc960208601610eb1565b925060408501359150606085013567ffffffffffffffff811115610fec57600080fd5b8501601f81018713610ffd57600080fd5b803567ffffffffffffffff81111561101757611017610f86565b604051601f8201601f19908116603f0116810167ffffffffffffffff8111828210171561104657611046610f86565b60405281815282820160200189101561105e57600080fd5b8160208401602083013760006020838301015280935050505092959194509250565b60008060006060848603121561109557600080fd5b833592506110a560208501610eb1565b9150604084013567ffffffffffffffff811681146110c257600080fd5b809150509250925092565b600080604083850312156110e057600080fd5b6110e983610eb1565b91506110f760208401610eb1565b90509250929050565b600181811c9082168061111457607f821691505b60208210810361113457634e487b7160e01b600052602260045260246000fd5b50919050565b6000835161114c818460208801610e35565b835190830190611160818360208801610e35565b01949350505050565b6001600160a01b038581168252841660208201526040810183905260806060820181905260009061119c90830184610e59565b9695505050505050565b6000602082840312156111b857600080fd5b815161056f81610dff56fea26469706673582212209dc1418ce20945aa7edfcf85830ff8846b99a184fd805167222c00bd93919b2364736f6c634300081c0033",
  "linkReferences": {},
  "deployedLinkReferences": {}
}