{
  "_format": "hh-sol-artifact-1",
  "contractName": "MockNFT",
  "sourceName": "contracts/mocks/MockNFT.sol",
  "abi": [
    {
      "inputs": [],
      "stateMutability": "nonpayable",
      "type": "constructor"
    },
    {
      "inputs": [
        {
          "internalType": "address",
          "name": "sender",
          "type": "address"
        },
        {
          "internalType": "uint256",
          "name": "tokenId",
          "type": "uint256"
        },
        {
          "internalType": "address",
          "name": "owner",
          "type": "address"
        }
      ],
      "name": "ERC721IncorrectOwner",
      "type": "error"
    },
    {
      "inputs": [
        {
          "internalType": "address",
          "name": "operator",
          "type": "address"
        },
        {
          "internalType": "uint256",
          "name": "tokenId",
          "type": "uint256"
        }
      ],
      "name": "ERC721InsufficientApproval",
      "type": "error"
    },
    {
      "inputs": [
        {
          "internalType": "address",
          "name": "approver",
          "type": "address"
        }
      ],
      "name": "ERC721InvalidApprover",
      "type": "error"
    },
    {
      "inputs": [
        {
          "internalType": "address",
          "name": "operator",
          "type": "address"
        }
      ],
      "name": "ERC721InvalidOperator",
      "type": "error"
    },
    {
      "inputs": [
        {
          "internalType": "address",
          "name": "owner",
          "type": "address"
        }
      ],
      "name": "ERC721InvalidOwner",
      "type": "error"
    },
    {
      "inputs": [
        {
          "internalType": "address",
          "name": "receiver",
          "type": "address"
        }
      ],
      "name": "ERC721InvalidReceiver",
      "type": "error"
    },
    {
      "inputs": [
        {
          "internalType": "address",
          "name": "sender",
          "type": "address"
        }
      ],
      "name": "ERC721InvalidSender",
      "type": "error"
    },
    {
      "inputs": [
        {
          "internalType": "uint256",
          "name": "tokenId",
          "type": "uint256"
        }
      ],
      "name": "ERC721NonexistentToken",
      "type": "error"
    },
    {
      "anonymous": false,
      "inputs": [
        {
          "indexed": true,
          "internalType": "address",
          "name": "owner",
          "type": "address"
        },
        {
          "indexed": true,
          "internalType": "address",
          "name": "approved",
          "type": "address"
        },
        {
          "indexed": true,
          "internalType": "uint256",
          "name": "tokenId",
          "type": "uint256"
        }
      ],
      "name": "Approval",
      "type": "event"
    },
    {
      "anonymous": false,
      "inputs": [
        {
          "indexed": true,
          "internalType": "address",
          "name": "owner",
          "type": "address"
        },
        {
          "indexed": true,
          "internalType": "address",
          "name": "operator",
          "type": "address"
        },
        {
          "indexed": false,
          "internalType": "bool",
          "name": "approved",
          "type": "bool"
        }
      ],
      "name": "ApprovalForAll",
      "type": "event"
    },
    {
      "anonymous": false,
      "inputs": [
        {
          "indexed": true,
          "internalType": "address",
          "name": "from",
          "type": "address"
        },
        {
          "indexed": true,
          "internalType": "address",
          "name": "to",
          "type": "address"
        },
        {
          "indexed": true,
          "internalType": "uint256",
          "name": "tokenId",
          "type": "uint256"
        }
      ],
      "name": "Transfer",
      "type": "event"
    },
    {
      "anonymous": false,
      "inputs": [
        {
          "indexed": true,
          "internalType": "uint256",
          "name": "tokenId",
          "type": "uint256"
        },
        {
          "indexed": true,
          "internalType": "address",
          "name": "user",
          "type": "address"
        },
        {
          "indexed": false,
          "internalType": "uint64",
          "name": "expires",
          "type": "uint64"
        }
      ],
      "name": "UpdateUser",
      "type": "event"
    },
    {
      "inputs": [
        {
          "internalType": "address",
          "name": "to",
          "type": "address"
        },
        {
          "internalType": "uint256",
          "name": "tokenId",
          "type": "uint256"
        }
      ],
      "name": "approve",
      "outputs": [],
      "stateMutability": "nonpayable",
      "type": "function"
    },
    {
      "inputs": [
        {
          "internalType": "address",
          "name": "owner",
          "type": "address"
        }
      ],
      "name": "balanceOf",
      "outputs": [
        {
          "internalType": "uint256",
          "name": "",
          "type": "uint256"
        }
      ],
      "stateMutability": "view",
      "type": "function"
    },
    {
      "inputs": [
        {
          "internalType": "uint256",
          "name": "tokenId",
          "type": "uint256"
        }
      ],
      "name": "getApproved",
      "outputs": [
        {
          "internalType": "address",
          "name": "",
          "type": "address"
        }
      ],
      "stateMutability": "view",
      "type": "function"
    },
    {
      "inputs": [
        {
          "internalType": "address",
          "name": "owner",
          "type": "address"
        },
        {
          "internalType": "address",
          "name": "operator",
          "type": "address"
        }
      ],
      "name": "isApprovedForAll",
      "outputs": [
        {
          "internalType": "bool",
          "name": "",
          "type": "bool"
        }
      ],
      "stateMutability": "view",
      "type": "function"
    },
    {
      "inputs": [
        {
          "internalType": "address",
          "name": "to",
          "type": "address"
        },
        {
          "internalType": "uint256",
          "name": "tokenId",
          "type": "uint256"
        }
      ],
      "name": "mint",
      "outputs": [],
      "stateMutability": "nonpayable",
      "type": "function"
    },
    {
      "inputs": [],
      "name": "name",
      "outputs": [
        {
          "internalType": "string",
          "name": "",
          "type": "string"
        }
      ],
      "stateMutability": "view",
      "type": "function"
    },
    {
      "inputs": [
        {
          "internalType": "uint256",
          "name": "tokenId",
          "type": "uint256"
        }
      ],
      "name": "ownerOf",
      "outputs": [
        {
          "internalType": "address",
          "name": "",
          "type": "address"
        }
      ],
      "stateMutability": "view",
      "type": "function"
    },
    {
      "inputs": [
        {
          "internalType": "address",
          "name": "from",
          "type": "address"
        },
        {
          "internalType": "address",
          "name": "to",
          "type": "address"
        },
        {
          "internalType": "uint256",
          "name": "tokenId",
          "type": "uint256"
        }
      ],
      "name": "safeTransferFrom",
      "outputs": [],
      "stateMutability": "nonpayable",
      "type": "function"
    },
    {
      "inputs": [
        {
          "internalType": "address",
          "name": "from",
          "type": "address"
        },
        {
          "internalType": "address",
          "name": "to",
          "type": "address"
        },
        {
          "internalType": "uint256",
          "name": "tokenId",
          "type": "uint256"
        },
        {
          "internalType": "bytes",
          "name": "data",
          "type": "bytes"
        }
      ],
      "name": "safeTransferFrom",
      "outputs": [],
      "stateMutability": "nonpayable",
      "type": "function"
    },
    {
      "inputs": [
        {
          "internalType": "address",
          "name": "operator",
          "type": "address"
        },
        {
          "internalType": "bool",
          "name": "approved",
          "type": "bool"
        }
      ],
      "name": "setApprovalForAll",
      "outputs": [],
      "stateMutability": "nonpayable",
      "type": "function"
    },
    {
      "inputs": [
        {
          "internalType": "uint256",
          "name": "tokenId",
          "type": "uint256"
        },
        {
          "internalType": "address",
          "name": "user",
          "type": "address"
        },
        {
          "internalType": "uint64",
          "name": "expires",
          "type": "uint64"
        }
      ],
      "name": "setUser",
      "outputs": [],
      "stateMutability": "nonpayable",
      "type": "function"
    },
    {
      "inputs": [
        {
          "internalType": "bytes4",
          "name": "interfaceId",
          "type": "bytes4"
        }
      ],
      "name": "supportsInterface",
      "outputs": [
        {
          "internalType": "bool",
          "name": "",
          "type": "bool"
        }
      ],
      "stateMutability": "view",
      "type": "function"
    },
    {
      "inputs": [],
      "name": "symbol",
      "outputs": [
        {
          "internalType": "string",
          "name": "",
          "type": "string"
        }
      ],
      "stateMutability": "view",
      "type": "function"
    },
    {
      "inputs": [
        {
          "internalType": "uint256",
          "name": "tokenId",
          "type": "uint256"
        }
      ],
      "name": "tokenURI",
      "outputs": [
        {
          "internalType": "string",
          "name": "",
          "type": "string"
        }
      ],
      "stateMutability": "view",
      "type": "function"
    },
    {
      "inputs": [
        {
          "internalType": "address",
          "name": "from",
          "type": "address"
        },
        {
          "internalType": "address",
          "name": "to",
          "type": "address"
        },
        {
          "internalType": "uint256",
          "name": "tokenId",
          "type": "uint256"
        }
      ],
      "name": "transferFrom",
      "outputs": [],
      "stateMutability": "nonpayable",
      "type": "function"
    },
    {
      "inputs": [
        {
          "internalType": "uint256",
          "name": "tokenId",
          "type": "uint256"
        }
      ],
      "name": "userExpires",
      "outputs": [
        {
          "internalType": "uint256",
          "name": "",
          "type": "uint256"
        }
      ],
      "stateMutability": "view",
      "type": "function"
    },
    {
      "inputs": [
        {
          "internalType": "uint256",
          "name": "tokenId",
          "type": "uint256"
        }
      ],
      "name": "userOf",
      "outputs": [
        {
          "internalType": "address",
          "name": "",
          "type": "address"
        }
      ],
      "stateMutability": "view",
      "type": "function"
    }
  ],
  "bytecode": "0x608060405234801561001057600080fd5b5060405180604001604052806007815260200166135bd8dad3919560ca1b815250604051806040016040528060048152602001631353919560e21b815250816000908161005d9190610111565b50600161006a8282610111565b5050506101cf565b634e487b7160e01b600052604160045260246000fd5b600181811c9082168061009c57607f821691505b6020821081036100bc57634e487b7160e01b600052602260045260246000fd5b50919050565b601f82111561010c57806000526020600020601f840160051c810160208510156100e95750805b601f840160051c820191505b8181101561010957600081556001016100f5565b50505b505050565b81516001600160401b0381111561012a5761012a610072565b61013e816101388454610088565b846100c2565b6020601f821160018114610172576000831561015a5750848201515b600019600385901b1c1916600184901b178455610109565b600084815260208120601f198516915b828110156101a25787850151825560209485019460019092019101610182565b50848210156101c05786840151600019600387901b60f8161c191681555b50505050600190811b01905550565b6111cb806101de6000396000f3fe608060405234801561001057600080fd5b506004361061010b5760003560e01c806370a08231116100a2578063b88d4fde11610071578063b88d4fde14610246578063c2f1f14a14610259578063c87b56dd1461026c578063e030565e1461027f578063e985e9c51461029257600080fd5b806370a08231146101d95780638fc88c48146101fa57806395d89b411461022b578063a22cb4651461023357600080fd5b806323b872dd116100de57806323b872dd1461018d57806340c10f19146101a057806342842e0e146101b35780636352211e146101c657600080fd5b806301ffc9a71461011057806306fdde0314610138578063081812fc1461014d578063095ea7b314610178575b600080fd5b61012361011e366004610de5565b6102a5565b60405190151581526020015b60405180910390f35b6101406102d0565b60405161012f9190610e52565b61016061015b366004610e65565b610362565b6040516001600160a01b03909116815260200161012f565b61018b610186366004610e9a565b61038b565b005b61018b61019b366004610ec4565b61039a565b61018b6101ae366004610e9a565b61042a565b61018b6101c1366004610ec4565b610434565b6101606101d4366004610e65565b610454565b6101ec6101e7366004610f01565b61045f565b60405190815260200161012f565b6101ec610208366004610e65565b600090815260066020526040902054600160a01b900467ffffffffffffffff1690565b6101406104a7565b61018b610241366004610f1c565b6104b6565b61018b610254366004610f6e565b6104c1565b610160610267366004610e65565b6104d9565b61014061027a366004610e65565b610524565b61018b61028d366004611052565b610599565b6101236102a036600461109f565b6106a5565b60006001600160e01b03198216632b424ad760e21b14806102ca57506102ca826106d3565b92915050565b6060600080546102df906110d2565b80601f016020809104026020016040519081016040528092919081815260200182805461030b906110d2565b80156103585780601f1061032d57610100808354040283529160200191610358565b820191906000526020600020905b81548152906001019060200180831161033b57829003601f168201915b5050505050905090565b600061036d82610723565b506000828152600460205260409020546001600160a01b03166102ca565b61039682823361075c565b5050565b6001600160a01b0382166103c957604051633250574960e11b8152600060048201526024015b60405180910390fd5b60006103d6838333610769565b9050836001600160a01b0316816001600160a01b031614610424576040516364283d7b60e01b81526001600160a01b03808616600483015260248201849052821660448201526064016103c0565b50505050565b6103968282610862565b61044f838383604051806020016040528060008152506104c1565b505050565b60006102ca82610723565b60006001600160a01b03821661048b576040516322718ad960e21b8152600060048201526024016103c0565b506001600160a01b031660009081526003602052604090205490565b6060600180546102df906110d2565b6103963383836108c7565b6104cc84848461039a565b6104243385858585610966565b60008181526006602052604081205442600160a01b90910467ffffffffffffffff161061051c57506000908152600660205260409020546001600160a01b031690565b506000919050565b606061052f82610723565b50600061054760408051602081019091526000815290565b905060008151116105675760405180602001604052806000815250610592565b8061057184610a91565b60405160200161058292919061110c565b6040516020818303038152906040525b9392505050565b336105a384610454565b6001600160a01b031614806105c557506105c56105bf84610454565b336106a5565b806105e05750336105d584610362565b6001600160a01b0316145b6106245760405162461bcd60e51b81526020600482015260156024820152742737ba1030b8383937bb32b21037b91037bbb732b960591b60448201526064016103c0565b60008381526006602090815260409182902080546001600160a01b0386166001600160e01b03199091168117600160a01b67ffffffffffffffff871690810291909117835593519384529092909186917f4e06b4e7000e659094299b3533b47b6aa8ad048e95e872d23d1f4ee55af89cfe910160405180910390a350505050565b6001600160a01b03918216600090815260056020908152604080832093909416825291909152205460ff1690565b60006001600160e01b031982166380ac58cd60e01b148061070457506001600160e01b03198216635b5e139f60e01b145b806102ca57506301ffc9a760e01b6001600160e01b03198316146102ca565b6000818152600260205260408120546001600160a01b0316806102ca57604051637e27328960e01b8152600481018490526024016103c0565b61044f8383836001610b24565b6000828152600260205260408120546001600160a01b039081169083161561079657610796818486610c2a565b6001600160a01b038116156107d4576107b3600085600080610b24565b6001600160a01b038116600090815260036020526040902080546000190190555b6001600160a01b03851615610803576001600160a01b0385166000908152600360205260409020805460010190555b60008481526002602052604080822080546001600160a01b0319166001600160a01b0389811691821790925591518793918516917fddf252ad1be2c89b69c2b068fc378daa952ba7f163c4a11628f55a4df523b3ef91a4949350505050565b6001600160a01b03821661088c57604051633250574960e11b8152600060048201526024016103c0565b600061089a83836000610769565b90506001600160a01b0381161561044f576040516339e3563760e11b8152600060048201526024016103c0565b6001600160a01b0382166108f957604051630b61174360e31b81526001600160a01b03831660048201526024016103c0565b6001600160a01b03838116600081815260056020908152604080832094871680845294825291829020805460ff191686151590811790915591519182527f17307eab39ab6107e8899845ad3d59bd9653f200f220920489ca2b5937696c31910160405180910390a3505050565b6001600160a01b0383163b15610a8a57604051630a85bd0160e11b81526001600160a01b0384169063150b7a02906109a890889088908790879060040161113b565b6020604051808303816000875af19250505080156109e3575060408051601f3d908101601f191682019092526109e091810190611178565b60015b610a4c573d808015610a11576040519150601f19603f3d011682016040523d82523d6000602084013e610a16565b606091505b508051600003610a4457604051633250574960e11b81526001600160a01b03851660048201526024016103c0565b805181602001fd5b6001600160e01b03198116630a85bd0160e11b14610a8857604051633250574960e11b81526001600160a01b03851660048201526024016103c0565b505b5050505050565b60606000610a9e83610c8e565b600101905060008167ffffffffffffffff811115610abe57610abe610f58565b6040519080825280601f01601f191660200182016040528015610ae8576020820181803683370190505b5090508181016020015b600019016f181899199a1a9b1b9c1cb0b131b232b360811b600a86061a8153600a8504945084610af257509392505050565b8080610b3857506001600160a01b03821615155b15610bfa576000610b4884610723565b90506001600160a01b03831615801590610b745750826001600160a01b0316816001600160a01b031614155b8015610b875750610b8581846106a5565b155b15610bb05760405163a9fbf51f60e01b81526001600160a01b03841660048201526024016103c0565b8115610bf85783856001600160a01b0316826001600160a01b03167f8c5be1e5ebec7d5bd14f71427d1e84f3dd0314c0f7b2291e5b200ac8c7c3b92560405160405180910390a45b505b5050600090815260046020526040902080546001600160a01b0319166001600160a01b0392909216919091179055565b610c35838383610d66565b61044f576001600160a01b038316610c6357604051637e27328960e01b8152600481018290526024016103c0565b60405163177e802f60e01b81526001600160a01b0383166004820152602481018290526044016103c0565b60008072184f03e93ff9f4daa797ed6e38ed64bf6a1f0160401b8310610ccd5772184f03e93ff9f4daa797ed6e38ed64bf6a1f0160401b830492506040015b6d04ee2d6d415b85acef81000000008310610cf9576d04ee2d6d415b85acef8100000000830492506020015b662386f26fc100008310610d1757662386f26fc10000830492506010015b6305f5e1008310610d2f576305f5e100830492506008015b6127108310610d4357612710830492506004015b60648310610d55576064830492506002015b600a83106102ca5760010192915050565b60006001600160a01b03831615801590610dc45750826001600160a01b0316846001600160a01b03161480610da05750610da084846106a5565b80610dc457506000828152600460205260409020546001600160a01b038481169116145b949350505050565b6001600160e01b031981168114610de257600080fd5b50565b600060208284031215610df757600080fd5b813561059281610dcc565b60005b83811015610e1d578181015183820152602001610e05565b50506000910152565b60008151808452610e3e816020860160208601610e02565b601f01601f19169290920160200192915050565b6020815260006105926020830184610e26565b600060208284031215610e7757600080fd5b5035919050565b80356001600160a01b0381168114610e9557600080fd5b919050565b60008060408385031215610ead57600080fd5b610eb683610e7e565b946020939093013593505050565b600080600060608486031215610ed957600080fd5b610ee284610e7e565b9250610ef060208501610e7e565b929592945050506040919091013590565b600060208284031215610f1357600080fd5b61059282610e7e565b60008060408385031215610f2f57600080fd5b610f3883610e7e565b915060208301358015158114610f4d57600080fd5b809150509250929050565b634e487b7160e01b600052604160045260246000fd5b60008060008060808587031215610f8457600080fd5b610f8d85610e7e565b9350610f9b60208601610e7e565b925060408501359150606085013567ffffffffffffffff811115610fbe57600080fd5b8501601f81018713610fcf57600080fd5b803567ffffffffffffffff811115610fe957610fe9610f58565b604051601f8201601f19908116603f0116810167ffffffffffffffff8111828210171561101857611018610f58565b60405281815282820160200189101561103057600080fd5b8160208401602083013760006020838301015280935050505092959194509250565b60008060006060848603121561106757600080fd5b8335925061107760208501610e7e565b9150604084013567ffffffffffffffff8116811461109457600080fd5b809150509250925092565b600080604083850312156110b257600080fd5b6110bb83610e7e565b91506110c960208401610e7e565b90509250929050565b600181811c908216806110e657607f821691505b60208210810361110657634e487b7160e01b600052602260045260246000fd5b50919050565b6000835161111e818460208801610e02565b835190830190611132818360208801610e02565b01949350505050565b6001600160a01b038581168252841660208201526040810183905260806060820181905260009061116e90830184610e26565b9695505050505050565b60006020828403121561118a57600080fd5b815161059281610dcc56fea264697066735822122059f96a17ad2b96dd4512ad64266d1e530b7be9dbccfe47a64555cbbc7316471c64736f6c634300081c0033",
  "linkReferences": {},
  "deployedLinkReferences": {}
}