{
  "_format": "hh-sol-artifact-1",
  "contractName": "DoubleSVG",
  "sourceName": "contracts/DoubleSVG.sol",
  "abi": [
    {
      "inputs": [
        {
          "internalType": "uint256",
          "name": "tokenId",
          "type": "uint256"
        },
        {
          "internalType": "string",
          "name": "name",
          "type": "string"
        },
        {
          "internalType": "string",
          "name": "type_value",
          "type": "string"
        },
        {
          "internalType": "uint64",
          "name": "start_time",
          "type": "uint64"
        },
        {
          "internalType": "uint64",
          "name": "end_time",
          "type": "uint64"
        }
      ],
      "name": "genTokenURI",
      "outputs": [
        {
          "internalType": "string",
          "name": "",
          "type": "string"
        }
      ],
      "stateMutability": "view",
      "type": "function"
    }
  ],
  "bytecode": "0x6122c2610039600b82828239805160001a607314602c57634e487b7160e01b600052600060045260246000fd5b30600052607381538281f3fe73000000000000000000000000000000000000000030146080604052600436106100355760003560e01c80630557ba511461003a575b600080fd5b61004d61004836600461096e565b610063565b60405161005a9190610a24565b60405180910390f35b6060600061007a61007585858961011c565b61023d565b905085610086886103a1565b604051602001610097929190610a73565b60405160208183030381529060405295506100f18682876100c0886001600160401b03166103a1565b6100c9886104a9565b6040516020016100dd959493929190610ab0565b60405160208183030381529060405261023d565b6040516020016101019190610c0b565b60405160208183030381529060405291505095945050505050565b6040805180820182526007808252660233030303030360cc1b6020808401919091528351808501909452908352660236630626230360cc1b908301526060916001600160401b038516421115610190575060408051808201909152600781526611b1193119311960c91b60208201526101b3565b604051806040016040528060078152602001660236232353630360cc1b81525091505b604080518082019091526008815267496e66696e69747960c01b60208201526001600160401b0386811610156101f8576101f5866001600160401b031661054b565b90505b81838661020d8a6001600160401b031661054b565b84604051602001610222959493929190610c50565b60405160208183030381529060405293505050509392505050565b6060815160000361025c57505060408051602081019091526000815290565b6000604051806080016040528060448152602001612249604491399050600060038451600261028b9190611f9b565b6102959190611fca565b6102a0906004611fde565b905060006102af826020611f9b565b6001600160401b038111156102c6576102c66108b4565b6040519080825280601f01601f1916602001820160405280156102f0576020820181803683370190505b509050818152600183018586518101602084015b8183101561035c576003830192508251603f8160121c168501518253600182019150603f81600c1c168501518253600182019150603f8160061c168501518253600182019150603f8116850151825350600101610304565b600389510660018114610376576002811461038757610393565b613d3d60f01b600119830152610393565b603d60f81b6000198301525b509398975050505050505050565b6060816000036103c85750506040805180820190915260018152600360fc1b602082015290565b8160005b81156103f257806103dc81611ff5565b91506103eb9050600a83611fca565b91506103cc565b6000816001600160401b0381111561040c5761040c6108b4565b6040519080825280601f01601f191660200182016040528015610436576020820181803683370190505b5090505b84156104a15761044b60018361200e565b9150610458600a86612021565b610463906030611f9b565b60f81b81838151811061047857610478612035565b60200101906001600160f81b031916908160001a90535061049a600a86611fca565b945061043a565b949350505050565b606067fffffffffffffffe196001600160401b038316016105245760405160200161050e907f227d2c7b2274726169745f74797065223a22656e645f74696d65222c2276616c81526d3ab2911d1124b73334b734ba3c9160911b6020820152602e0190565b6040516020818303038152906040529050919050565b610536826001600160401b03166103a1565b60405160200161050e919061204b565b919050565b606060008060008060008061055f886106cc565b9550955095509550955095506000610576866103a1565b9050600a8610156105a4578060405160200161059291906120c1565b60405160208183030381529060405290505b60006105af866103a1565b9050600a8610156105dd57806040516020016105cb91906120c1565b60405160208183030381529060405290505b60006105e8866103a1565b9050600a861015610616578060405160200161060491906120c1565b60405160208183030381529060405290505b6000610621866103a1565b9050600a86101561064f578060405160200161063d91906120c1565b60405160208183030381529060405290505b600061065a866103a1565b9050600a861015610688578060405160200161067691906120c1565b60405160208183030381529060405290505b6106918b6103a1565b85858585856040516020016106ab969594939291906120ea565b6040516020818303038152906040529b505050505050505050505050919050565b600080808080806106e86106e36201518089611fca565b610740565b9197509550935060006106fe6201518089612021565b905061070c610e1082611fca565b935061071a610e1082612021565b9050610727603c82611fca565b9250610734603c82612021565b91505091939550919395565b60008080838162253d8c6107578362010bd961219b565b610761919061219b565b9050600062023ab16107748360046121c3565b61077e91906121f3565b9050600461078f8262023ab16121c3565b61079a90600361219b565b6107a491906121f3565b6107ae9083612221565b9150600062164b096107c184600161219b565b6107cd90610fa06121c3565b6107d791906121f3565b905060046107e7826105b56121c3565b6107f191906121f3565b6107fb9084612221565b61080690601f61219b565b9250600061098f6108188560506121c3565b61082291906121f3565b9050600060506108348361098f6121c3565b61083e91906121f3565b6108489086612221565b9050610855600b836121f3565b945061086285600c6121c3565b61086d83600261219b565b6108779190612221565b91508483610886603187612221565b6108919060646121c3565b61089b919061219b565b6108a5919061219b565b9a919950975095505050505050565b634e487b7160e01b600052604160045260246000fd5b600082601f8301126108db57600080fd5b81356001600160401b038111156108f4576108f46108b4565b604051601f8201601f19908116603f011681016001600160401b0381118282101715610922576109226108b4565b60405281815283820160200185101561093a57600080fd5b816020850160208301376000918101602001919091529392505050565b80356001600160401b038116811461054657600080fd5b600080600080600060a0868803121561098657600080fd5b8535945060208601356001600160401b038111156109a357600080fd5b6109af888289016108ca565b94505060408601356001600160401b038111156109cb57600080fd5b6109d7888289016108ca565b9350506109e660608701610957565b91506109f460808701610957565b90509295509295909350565b60005b83811015610a1b578181015183820152602001610a03565b50506000910152565b6020815260008251806020840152610a43816040850160208701610a00565b601f01601f19169190910160400192915050565b60008151610a69818560208601610a00565b9290920192915050565b60008351610a85818460208801610a00565b61202360f01b9083019081528351610aa4816002840160208801610a00565b01600201949350505050565b683d913730b6b2911d1160b91b81528551600090610ad5816009850160208b01610a00565b6c1116101134b6b0b3b2911d101160991b6009918401918201527f646174613a696d6167652f7376672b786d6c3b6261736536342c00000000000060168201528651610b28816030840160208b01610a00565b6009818301019150507f222c202261747472696275746573223a5b7b2274726169745f74797065223a2260278201526e3a3cb8329116113b30b63ab2911d1160891b60478201528551610b82816056840160208a01610a00565b610bfe610bef610be9610be36056868601017f227d2c7b22646973706c61795f74797065223a2264617465222c22747261697481527f5f74797065223a2273746172745f74696d65222c2276616c7565223a220000006020820152603d0190565b89610a57565b87610a57565b627d5d7d60e81b815260030190565b9998505050505050505050565b7f646174613a6170706c69636174696f6e2f6a736f6e3b6261736536342c000000815260008251610c4381601d850160208701610a00565b91909101601d0192915050565b7f3c7376672077696474683d2235303022206865696768743d223530302220786d81527f6c6e733d22687474703a2f2f7777772e77332e6f72672f323030302f7376672260208201527f20786d6c6e733a786c696e6b3d22687474703a2f2f7777772e77332e6f72672f60408201527f313939392f786c696e6b223e203c726563742066696c6c3d2200000000000000606082015260008651610cfa816079850160208b01610a00565b7f22206865696768743d22353030222077696474683d223530302220793d2230226079918401918201527f20783d2230222f3e3c7465787420666f6e742d7765696768743d22626f6c642260998201527f20786d6c3a73706163653d2270726573657276652220666f6e742d66616d696c60b98201527f793d2248656c7665746963612c20417269616c2c2073616e732d73657269662260d98201527f20666f6e742d73697a653d2232342220793d223331302220783d22363022206660f98201526434b6361e9160d91b610119820152611f79610f6a610f64610eb4610be3610e03610dfd610dee61011e89018f610a57565b6211101f60e91b815260030190565b8c610a57565b7f3c2f746578743e3c7465787420666f6e742d7765696768743d226e6f726d616c81527f2220786d6c3a73706163653d2270726573657276652220666f6e742d66616d6960208201527f6c793d2248656c7665746963612c20417269616c2c2073616e732d736572696660408201527f2220666f6e742d73697a653d2232302220793d223335302220783d223630223e60608201526c029ba30b93a102a34b6b2901d1609d1b6080820152608d0190565b7f3c2f746578743e3c7465787420666f6e742d7765696768743d226e6f726d616c81527f2220786d6c3a73706163653d2270726573657276652220666f6e742d66616d6960208201527f6c793d2248656c7665746963612c20417269616c2c2073616e732d736572696660408201527f2220666f6e742d73697a653d2232302220793d223338302220783d223630223e60608201526b022b732102a34b6b290101d160a51b6080820152608c0190565b86610a57565b7f3c2f746578743e3c7465787420666f6e742d7765696768743d22626f6c64222081527f786d6c3a73706163653d2270726573657276652220666f6e742d66616d696c7960208201527f3d2248656c7665746963612c20417269616c2c2073616e732d7365726966222060408201527f666f6e742d73697a653d2232302220793d223436312220783d22313633223e4060608201527f446f75626c652050726f746f636f6c3c2f746578743e3c67207374726f6b653d60808201527f226e756c6c22207472616e73666f726d3d226d617472697828302e352c302c3060a08201527f2c302e352c2d35352c383029223e3c696d616765207374726f6b653d226e756c60c08201527f6c2220783d223339352220793d222d323936222069643d227376675f3139222060e08201527f786c696e6b3a687265663d22646174613a696d6167652f706e673b62617365366101008201527f342c6956424f5277304b47676f414141414e53556845556741414151494141416101208201527f4571434159414141442b7346344c414141414358424957584d4141424d5241416101408201527f41544551453559482f774141414952306c4551565234587533647361736356526101608201527f544134586d535169524e6d714259764243736a515262617947466859554579796101808201527f442b55524a536951514c433475415667476246434c474b6c58515170524153426101a08201527f504579725549764866325a652f757a4d37636d58767666462b3150676179532b6101c08201527f4c682f4f6275376a765a6244596446666e373032462f5957392f64334c6f456e6101e08201527f6a6a304156412b7777436f447552426f55616d674244535159434777466745416102008201527f44536f437935637942464a7179656a514177434142707349796c456d416f79626102208201527f41614e674c414941436b77587871795945556d644130477746674541445359486102408201527f71314a3842516b71454a4e674c414941436b775454576c674d704d7146614e676102608201527f4c414941436b77544153344469536f58673241734167414b544259584a67576a6102808201527f4b685344594377434141704d4535436241737962416f477746674541427254776102a08201527f4d355543615a4d447362415741514147744a41776e5142736d516a5930414d416102c08201527f69416c744e414472524e4a6b7a4b52674159424942424148517433434e774c346102e08201527f444976594f6a324167416777436f4e51336b41483349684e357342494242414a6103008201527f536542684b414843544461327745674545416c4a6747636f41357959537536326103208201527f774551476351414e3253615442564174792f6565694b6262642f4f58514672436103408201527f345a624153415151444d6e515a4c3555424b435a6d516569306c5044646557556103608201527f456d32416741677744496c51616c4a634251756466796f613872392f50684f416103808201527f306c673430414d4169414b644f673968784947624f57353334745935346230366103a08201527f6f384532774567454541484a4d4772536241554b6d31664b6e584a52504b56456103c08201527f6b79324167416777446f6d775a796f4636536f5277465a344b4e4144414967496103e08201527f7470494148614a68504b56454179324167416777446f7570504e3478766e4f586104008201527f44312b70354c44354144395a494d693372782f594f7a7831652b2f486552544c6104208201527f41524141594230485758747637723264507a78774d7a346558546e38386558376104408201527f372b345a34724b63456639373439653378362b37303956354a447a49455332416104608201527f6741677743346d415a527a49536f527a4c4554496a576c6778782f59354f37336104808201527f7932382b6335704a34443878696141432b2b6576507346472f4f4577516241576104a08201527f415141507653494d584a776c346c724f496c5049633147356f444a62415241416104c08201527f5942634577615246736e43396453562b31552b386e436d5056377174632b356a6104e08201527f6b77587534456d504d457755594147415441324454496f4f535468647972654a6105008201527f2f586e76733573462f754846694b6a51417743494143307943613675373655436105208201527f577333366e587a6a784b533444634a77673241734167414170506735512b64396105408201527f654857696f485573382f647871632f756862695334714c51666d5a434d4144416105608201527f4b67306a5349687034734c4a5541555a2b636964654d7951514a384c726145796105808201527f444843594b4e414441496741625349435775303838664a7236494e624f7076716105a08201527f51305a6b4a386e50787956446e776d74707a49446362415741514141326e77566105c08201527f4b6d796f452b7476347376394734363772314a6342554a77673241734167414b6105e08201527f544230655a4d6746377533397a393878556b773970794941636241574151414e6106008201527f4a676b4f4a794943472b30656a30646a74764c7049412b3430355162415241416106208201527f59424d474561585037693935302f66336e333273366631326a6f5235357a4b2b6106408201527f456a31626e4a67586e594341434441444149674737436577517038643542532f6106608201527f634c6f687a6671707a53366e304239774b6d4e66516f305559414741544144476106808201527f6b514f574c7372395545694f52414f577745674545417a4a77474b553457586d6106a08201527f6b314279544173767163494e674941494d414b43514e6f6a57664c4c524544746106c08201527f54465267415942454342615a417935386e4336646537352b504c757a742f584a6106e08201527f7735662f6568424b684c3667544252674159424542466152446c4f466c4935556107008201527f43553438386459383445694f52416577372f367765615a78414133636e6d38596107208201527f314e31364334726a392f2b505473635a384547474e4d4a73546e6d544a6e446b6107408201527f694139636a376677565142594d416144634e53744d6e476259535a735945694f6107608201527f54414f746b4941494d417150514e5254587138316d4a334363616b5151676d756107808201527f3966486c41736777444963327277305a312f7a68372f644f2b745056665379396107a08201527f58726836376f5251365159694d4144414a67686c4f446d416d525a426a6757656107c08201527f497a43496c6b6b4144303452754b67433047415a412f4463676f4a4d4f4c52306107e08201527f2f3258416a37325167416777435142737a6779696533446c327978616e482f476108008201527f7745674545415a4571442b4761683142754b4945564b354250665242545a43416108208201527f4344414d695542704850464a43626c426a5052674159424d414d6151436c57566108408201527f744b7045344b49687342594241413067414f69696c526579616b3241674167776108608201527f4351426e4251717a6b5132516741677743514274436b506d3869696d774567456108808201527f4541534150596151306e425a474e4144414941476b415a3272506761456e425a6108a08201527f474e4144414941476c7774506a37476e78424b37577a455141474156427247766108c08201527f7a77312b3666662f7a4f3770396e6c76713162704b68664c576646457a4652676108e08201527f41594245424e615a444b676451314332554335577370423861386953697945516109008201527f4147415642364776544a675a5443546861675a4459437743414144414b674b2f6109208201527f4565775a6a37416e314d644d5159337a5759656d63683558426b754a2b4e41446109408201527f414967464c53594b49636550443876304f5862446e2f5a64666a2b4842526d566109608201527f724b67647873424942424143795a426a3179594f697144787a4852674159424d6109808201527f4353615244657a5050676d7a2f3358416a39745870536b4f4e4e524a474e41446109a08201527f414967435854494c6a312b62746e6a3255435137576141334f794551414741566109c08201527f4249476b5178452f71514572517139306c425a434d4144414b6777445159536b6109e08201527f71736b354f4361646b4941494d416143414e68687161457052444475526a4977610a008201527f414d416d43466151416c6d2f4e4e524a474e4144414941476c41345a77557a4d610a208201527f4e4741426745514e64643674372f396677753557386662505a6343374e595777610a408201527f347364564951325167416777433465476f67453241574a6552415a434d414441610a608201527f4a673378754b59695a456b6f454d576a30704b433042556d7745674545414850610a808201527f4e5a4179634c5445514f6c4d4e47414267457744467045446c5a594d56715449610aa08201527f4155477746674541426a307944467951494a745a3855744a51446b5930414d41610ac08201527f6941726a765a624262613343584470463438656e4c6f45675a6f4e5146536241610ae08201527f53415151446b4f6a586f77386b4368566c62446b513241734167414a5a4d6738610b008201527f686e46706a526d684d6778555941474152414b576d51346d5342696369422f57610b208201527f7745674545416c4a34476b5a4d4665704141783745524141594255464d617044610b408201527f685a574430354d4a364e414441496742625349484b793044514a6b492b4e4144610b608201527f4149674e6253494d584a5172586b774478734249424241426745514c65576577610b808201527f535249385969755265774c42734259424141613079444645654d73354d443562610ba08201527f41524141594249413132633749774b516c515068734259424141306d41594a77610bc08201527f75397959473632416741677743514273647a737442316e51526f685930414d41610be08201527f674161544339465a7773794948323241674167774351426e6c56667249674164610c008201527f62445267415942494130574562424a777479594a317342494242414569443553610c208201527f313073694142694777456745454153494e795a54685a6b414f6b324167416777610c408201527f4351426e5559654c496741526a4b52674159424544582f512b4570374677796c610c608201527f5655657741414141424a52553545726b4a6767673d3d22207472616e73666f72610c808201527f6d3d227472616e736c617465282d322e32373337333637353434333233323036610ca08201527f652d31332c3338342e37373531343634383433373529207363616c6528302e35610cc08201527f3739393939393833333130363939352c302e3538393939393937333737333935610ce08201527f3633292022206865696768743d22323934222077696474683d22323538222f3e610d00820152691e17b39f1e17b9bb339f60b11b610d20820152610d2a0190565b98975050505050505050565b634e487b7160e01b600052601160045260246000fd5b80820180821115611fae57611fae611f85565b92915050565b634e487b7160e01b600052601260045260246000fd5b600082611fd957611fd9611fb4565b500490565b8082028115828204841417611fae57611fae611f85565b60006001820161200757612007611f85565b5060010190565b81810381811115611fae57611fae611f85565b60008261203057612030611fb4565b500690565b634e487b7160e01b600052603260045260246000fd5b7f227d2c7b22646973706c61795f74797065223a2264617465222c22747261697481527f5f74797065223a22656e645f74696d65222c2276616c7565223a2200000000006020820152600082516120a981603b850160208701610a00565b601160f91b603b939091019283015250603c01919050565b600360fc1b8152600082516120dd816001850160208701610a00565b9190910160010192915050565b600087516120fc818460208c01610a00565b602d60f81b908301908152875161211a816001840160208c01610a00565b602d60f81b60019290910191820152865161213c816002840160208b01610a00565b600181830101915050600160fd1b60018201528551612162816002840160208a01610a00565b600181830101915050601d60f91b6001820152610bfe6121956121886002840188610a57565b601d60f91b815260010190565b85610a57565b80820182811260008312801582168215821617156121bb576121bb611f85565b505092915050565b80820260008212600160ff1b841416156121df576121df611f85565b8181058314821517611fae57611fae611f85565b60008261220257612202611fb4565b600160ff1b82146000198414161561221c5761221c611f85565b500590565b818103600083128015838313168383128216171561224157612241611f85565b509291505056fe4142434445464748494a4b4c4d4e4f505152535455565758595a6162636465666768696a6b6c6d6e6f707172737475767778797a303132333435363738392b2f2d3a2320a2646970667358221220de983ebb80b8eca8ea2e67eec7c9c75e2fbf276e9de5138fffb9ee815b9149a564736f6c634300081c0033",
  "linkReferences": {},
  "deployedLinkReferences": {}
}